:020000040800F2
:10000000400700209D010008A1300008792B00085E
:100010009D30000835070008553C0008000000002E
:100020000000000000000000000000001531000882
:100030009D0800080000000011310008C9310008C7
:10004000B7010008B7010008B7010008B7010008B0
:10005000B7010008B7010008B7010008B7010008A0
:10006000B7010008B7010008B7010008B701000890
:10007000B7010008B7010008B7010008B701000880
:10008000B7010008B7010008B7010008B701000870
:10009000B7010008B7010008B7010008B50800085B
:1000A000B701000885320008B7010008B701000851
:1000B000B7010008B7010008B7010008B701000840
:1000C000B7010008B7010008B7010008B701000830
:1000D000B7010008B7010008B7010008B701000820
:1000E000A1080008B7010008B7010008B70100081F
:1000F000B7010008B7010008B7010008B701000800
:10010000B7010008B7010008B7010008B7010008EF
:10011000B7010008B7010008B7010008A1320008C4
:10012000B7010008B7010008B7010008B7010008CF
:10013000B7010008B7010008B7010008B7010008BF
:10014000B7010008B7010008B7010008B7010008AF
:10015000B7010008B7010008B7010008B70100089F
:10016000B7010008B7010008B7010008B70100088F
:10017000B7010008B7010008B7010008000000003F
:10018000B7010008B7010008DFF80CD000F050FA02
:1001900000480047AD40000840070020064880475F
:1001A00006480047FEE7FEE7FEE7FEE7FEE7FEE75C
:1001B000FEE7FEE7FEE7FEE771320008890100086E
:1001C0002DE9F05F0546002092469B46884606468C
:1001D000814640241BE0284641464746224600F01F
:1001E0005EF853465A46C01A914110D3114618463C
:1001F000224600F045F82D1A67EB01084F462246CB
:100200000120002100F03CF817EB00094E41201EB0
:10021000A4F10104DFDC484631462A464346BDE8E6
:10022000F09FD2B201E000F8012B491EFBD27047CB
:100230000022F6E710B513460A4604461946FFF7B2
:10024000F0FF204610BD421C10F8011B0029FBD115
:10025000801A704730B50B46014600202022012449
:1002600009E021FA02F59D4205D303FA02F5491B84
:1002700004FA02F52844151EA2F10102F1DC30BD9A
:10028000202A04DB203A00FA02F100207047914056
:10029000C2F1200320FA03F3194390407047202A4B
:1002A00004DB203A21FA02F00021704721FA02F320
:1002B000D040C2F1200291400843194670472DE911
:1002C000FE4F804681EA0300C00F0C46009021F0EB
:1002D000004123F00045B8EB0200A94105D2404699
:1002E000214690461C460B46024623F00040104330
:1002F00047D0270DC7F30A00C3F30A510290401AF2
:10030000019040286BDAC3F3130040F4801B00987F
:10031000924620B10023D2EB030A63EB0B0B01984A
:100320005946C0F140025046FFF7AAFF06460D4667
:1003300050465946019A00F08DF910EB08006141D2
:10034000002487EA115284EAE7731A4340D0009AE6
:1003500062B3019A012A4FEA075215DC001B61EBD8
:1003600002014FF0004202EA0752CDE90042001CB0
:1003700041F5801132462B4600F08DF903B0BDE8FF
:10038000F08F40462146F9E7001B61EB0201001C9B
:1003900041F5801300185B412018A2F5001747EBC8
:1003A000030140EAD570B6196D4111E06D084FEABE
:1003B000360645EAC0754FEA0752001B61EB0201A1
:1003C000001C41F5801149084FEA300000195141E5
:1003D00032462B4603B0BDE8F04F00F04DB900980F
:1003E000012240000023D0EB020263EBE07300988F
:1003F00021464FEAE074B8EB000061EB0401E9E745
:1004000083F000435BE781F0004158E72DE9FE4FA0
:1004100081EA030404F0004421F0004100944FF00D
:10042000000B23F0004350EA01045ED052EA0304BB
:100430005BD0C3F30A54C1F30A552C44A4F2F3343D
:100440000194A0FB0254C1F3130141F48011C3F3E2
:10045000130343F4801301FB024400FB034E840AA0
:10046000970A44EA815447EA8357A4FB0768029538
:100470008D0A05FB07854FEA932C04FB0C542705D6
:10048000029D4FEA065847EA1637B5EB08056EEBB2
:10049000070C870E920E47EA811742EA8312A7FBE8
:1004A0000201B6EB0B0164EB00042B0D43EA0C33A5
:1004B0005E1844EB1C50DA465146E7FB0201C5F3D7
:1004C00013044FEA0B3343EA14534FEA0432019CFE
:1004D00043EA0603A4F10C040294009CCDE900B4A5
:1004E00000F0D9F803B0BDE8F08F00200146F9E72D
:1004F0002DE9F04D81EA030404F0004B21F00045A2
:1005000014464FF0000A23F0004150EA050220D0C3
:1005100054EA01021DD0C5F30A570246C5F313037E
:10052000C1F31300C1F30A5640F4801543F480135D
:10053000A7EB0608101BD64608F2FD3873EB050042
:1005400002D308F1010801E092185B41B8F1000FF5
:1005500003DA00200146BDE8F08D00204FF4801141
:10056000064684460EE0171B73EB050705D3121BE6
:1005700063EB050306434CEA010C49084FEA3000DF
:1005800092185B4150EA0107EDD152EA030012D004
:1005900082EA040083EA0501084305D0101BAB4141
:1005A00006D20122002306E000224FF0004302E0C1
:1005B0006FF0010253101AEB06004CEB085110EBE0
:1005C0000A0041EB0B01BDE8F04D00F055B8C1F356
:1005D0000A52C1F3130140F2FF3341F480119A42F1
:1005E00002DA00200146704740F233439A42A2F2F9
:1005F000334202DC5242FFF752BEFFF741BE000019
:1006000030B5041E71F1000404DB4FF00044404299
:1006100064EB0101141E73F1000405DB1C464FF06E
:100620000043524263EB0403994208BF904230BD3D
:10063000064C074D06E0E06840F0010394E807002F
:1006400098471034AC42F6D3FFF7A2FD20560008BD
:1006500040560008202A06DBCB17203A41FA02F068
:1006600043EAE07306E041FA02F3D040C2F120020F
:10067000914008431946704710B5141E73F10004E9
:1006800008DA401C41F1000192185B411A4301D184
:1006900020F0010010BD2DE9F04D92469B4611B1AE
:1006A000B1FA81F202E0B0FA80F220329046FFF710
:1006B000E7FD04460F4640EA0A0041EA0B015346B3
:1006C0005A46084313D0114653EA010019D0C8F125
:1006D00040025046FFF7E3FD05460E465046594698
:1006E0004246FFF7CDFD084305D0012004E0204637
:1006F0003946BDE8F08D0020054346EAE0762C43FC
:1007000037430A986305E40AA0EB08000022FD0ABB
:1007100044EA47540A3002D500200146E9E70105C2
:1007200010196941DDE9084500196941BDE8F04D3E
:10073000A2E70000FFE7FEE780B582B000208DF859
:100740000700282004F0F0F940F60040C4F202004F
:100750004FF4006100F05AFBB0B9FFE7502004F0FD
:10076000E3F940F60040C4F202004FF4006100F0EB
:100770004DFB20B1FFE701208DF8070003E0FF20CB
:100780008DF80700FFE7FFE7FFE740F60040C4F2FF
:1007900002004FF4006100F039FB08B1FFE7F4E715
:1007A0009DF8070002B080BD80B582B000208DF8B2
:1007B0000600FFE79DF80600072846DCFFE7FFE795
:1007C00040F60040C4F202004FF4006100F01EFB4E
:1007D00008B9FFE7F4E7282004F0A6F940F6004046
:1007E000C4F202004FF4006100F010FB68B9FFE7AB
:1007F0009DF80600C0F10701012000FA01F19DF803
:10080000070088438DF807000CE09DF80600C0F152
:100810000701012000FA01F19DF8070008438DF857
:100820000700FFE7FFE740F60040C4F202004FF484
:10083000006100F0EBFA08B1FFE7F4E7FFE79DF88D
:10084000060001308DF80600B4E79DF8070002B0FD
:1008500080BD000080B582B040F60040C4F20200C6
:1008600000904FF40061019102F06CFC0098019936
:10087000002200F0E3FA44F2506004F055F90098C9
:100880000199012200F0DAFA142004F04DF90098E1
:10089000019902F041FC02B080BD000070470000E9
:1008A00080B54FF4006000F0B9F84FF4004000F05C
:1008B000B5F880BD80B5402000F0B0F84FF48070EE
:1008C00000F0ACF84FF4007000F0A8F880BD000014
:1008D00081B0EFF3108072B60090FFE7FEE70000F2
:1008E00080B584B0039000F0C1FA029003980190A3
:1008F0000198013048B1FFE740F20400C2F2000065
:100900000178019808440190FFE7FFE700F0AEFA94
:100910000299401A0199884201D2FFE7F6E704B034
:1009200080BD000080B582B0ADF80600BDF80600BD
:10093000402810D1FFE740F60040C4F202004FF417
:100940000041012200F07AFA04F0D4F840F00100EE
:1009500004F0DEF85BE0BDF80600B0F5807F10D152
:10096000FFE740F60040C4F202004FF400410122CC
:1009700000F064FA04F0BEF840F0020004F0C8F899
:1009800044E0BDF80600B0F5004F10D1FFE740F697
:100990000040C4F202004FF40041012200F04EFA80
:1009A00004F0A8F840F0100004F0B2F82DE0BDF813
:1009B0000600B0F5007F10D1FFE740F60040C4F21A
:1009C00002004FF40041012200F038FA04F092F8DE
:1009D00040F0040004F09CF816E0BDF80600B0F505
:1009E000006F10D1FFE740F60040C4F202004FF460
:1009F0000041012200F022FA04F07CF840F00800E7
:100A000004F086F8FFE7FFE7FFE7FFE7FFE704F002
:100A1000CDF804F0D3F802B080BD000080B582B0FC
:100A2000ADF8060043F61440C4F201000068BDF8BA
:100A3000061008420CD0FFE7BDF8060043F614414B
:100A4000C4F201010860BDF80600FFF76BFFFFE785
:100A500002B080BD8EB00D900C9100200A900990DC
:100A600008900B90FFE70B980F2800F2CC81FFE76E
:100A70000B99012088400A900C9800680A99084058
:100A8000099009980A99884240F0B881FFE70C98CC
:100A9000406800F00300012807D0FFE70C98406889
:100AA00000F0030002282FD1FFE70D98806808901E
:100AB0000B984100032000FA01F108988843089040
:100AC0000C98C0680B99490000FA01F10898084396
:100AD000089008980D9988600D98406808900B99C7
:100AE000012000FA01F10898884308900C984068AA
:100AF000C0F300100B9900FA01F108980843089020
:100B000008980D994860FFE70C98406800F00300D2
:100B1000032818D0FFE70D98C06808900B98410093
:100B2000032000FA01F10898884308900C98806827
:100B30000B99490000FA01F10898084308900898B9
:100B40000D99C860FFE70C98406800F00300022888
:100B500026D1FFE70D980B996FF0030202EA5101CD
:100B60000844006A08900B9800F0070081000F20ED
:100B700000FA01F10898884308900C9800690B99D5
:100B800001F00701890000FA01F108980843089074
:100B900008980D990B9B02EA530211440862FFE783
:100BA0000D98006808900B984100032000FA01F1AD
:100BB0000898884308900C98406800F003000B994F
:100BC000490000FA01F108980843089008980D9927
:100BD00008600C9880798007002800F00E81FFE7FC
:100BE000FFE70020079043F64400C4F202000168CA
:100BF00041F480410160006800F48040079007984C
:100C0000FFE70B9820F0030043F60801C4F201014E
:100C1000405808900B9800F0030081000F2000FA64
:100C200001F10898884308900D980021C4F2020150
:100C3000884203D1FFE7002006905EE00D9840F265
:100C40000041C4F20201884203D1FFE70120059070
:100C500050E00D9840F60001C4F20201884203D131
:100C6000FFE70220049042E00D9840F60041C4F2F4
:100C70000201884203D1FFE70320039034E00D987E
:100C800041F20001C4F20201884203D1FFE70420CF
:100C9000029026E00D9841F20041C4F20201884220
:100CA00003D1FFE70520019018E00D9841F60001FF
:100CB000C4F20201884203D1FFE7062000900AE057
:100CC0000D9941F60042C4F202020820914208BF89
:100CD00007200090FFE700980190FFE7019802903D
:100CE000FFE702980390FFE703980490FFE704985A
:100CF0000590FFE705980690FFE70698C0B20B99AC
:100D000001F00301890000FA01F1089808430890F6
:100D100008980B9921F0030143F60802C4F201027E
:100D2000885043F60840C4F2010000680890099911
:100D30000898884308900C988079C006002805D54B
:100D4000FFE70999089808430890FFE7089843F6D9
:100D50000841C4F20101086043F60C40C4F20100EE
:100D60000068089009990898884308900C98807941
:100D70008006002805D5FFE70999089808430890E0
:100D8000FFE7089843F60C41C4F20101086043F6FE
:100D90000440C4F20100006808900999089888434B
:100DA00008900C9880798007002805D5FFE70999FD
:100DB000089808430890FFE7089843F60441C4F2F6
:100DC0000101086043F60040C4F201000068089089
:100DD00009990898884308900C988079C00728B131
:100DE000FFE70999089808430890FFE7089843F639
:100DF0000041C4F201010860FFE7FFE7FFE70B983D
:100E000001300B902FE60EB07047000082B00190C9
:100E1000ADF8021001980069BDF80210084204D034
:100E2000FFE701208DF8010003E000208DF80100AC
:100E3000FFE79DF8010002B07047000082B001900A
:100E4000ADF802108DF801209DF8010028B1FFE7F0
:100E5000BDF802000199886105E0BDF802000004B8
:100E600001998861FFE702B07047000040F2383016
:100E7000C2F200000068704740F20400C2F20000B5
:100E8000027840F23831C2F200010868104408606C
:100E90007047000080B543F60041C4F202010868C3
:100EA00040F400700860086840F4806008600868DA
:100EB00040F480700860032000F08AF80F2000F0F2
:100EC00005F800F03BF8002080BD000080B582B03E
:100ED000009040F20000C2F20000006840F20401FD
:100EE000C2F200010A784FF47A71B1FBF2F1B0FB63
:100EF000F1F000F0A5FD20B1FFE701208DF807001B
:100F000018E000980F280DD8FFE700994FF0FF3048
:100F1000002200F043F8009840F20801C2F20001FC
:100F2000086003E001208DF8070003E000208DF841
:100F30000700FFE79DF8070002B080BD82B0FFE721
:100F40000020019043F64400C4F20200016841F41D
:100F500080410160006800F4804001900198FFE743
:100F6000FFE70020009043F64000C4F20200016851
:100F700041F080510160006800F0805000900098BE
:100F8000FFE702B07047000080B582B08DF807001F
:100F90009DF9070002F060FE02B080BD80B586B00A
:100FA0008DF81700049103920020029002F06CFE6D
:100FB00002909DF91700019002980499039A02F09B
:100FC00071F80146019802F067FE06B080BD00008E
:100FD00080B582B00190019802F080FE02B080BD21
:100FE00080B584B002900191029820B9FFE70120FA
:100FF0008DF80F0021E1019843F60041C4F202018F
:10100000096801F00701884212D9FFE7019943F608
:101010000040C4F202000170006800F0070001996E
:10102000884204D0FFE701208DF80F0005E1FFE7BB
:1010300002980078800700282AD5FFE702980078F8
:101040004007002809D5FFE743F60801C4F2020172
:10105000086840F4E0500860FFE702980078000755
:10106000002809D5FFE743F60801C4F20201086829
:1010700040F460400860FFE743F60801C4F2020153
:10108000086820F0F000029A926810430860FFE7B9
:1010900002980078C00700286ED0FFE702984068E9
:1010A000012811D1FFE743F60000C4F202000068F6
:1010B00000F400310020B0EB514F04D1FFE70120D4
:1010C0008DF80F00B9E02CE002984068022805D0A6
:1010D000FFE702984068032811D1FFE743F60000BC
:1010E000C4F20200006800F000710020B0EB516F04
:1010F00004D1FFE701208DF80F009EE010E043F6D9
:101100000000C4F20200006800F002010020B0EB11
:10111000510F04D1FFE701208DF80F008DE0FFE7AC
:10112000FFE743F60801C4F20201086820F003005B
:10113000029A526810430860FFF798FE0090FFE79C
:1011400043F60800C4F20200006800F00C000299A7
:101150004968B0EB810F0ED0FFE7FFF787FE0099DB
:10116000401A41F28931884204D3FFE703208DF809
:101170000F0062E0E4E7FFE7019843F60041C4F2A4
:101180000201096801F00701884212D2FFE70199C4
:1011900043F60040C4F202000170006800F007004E
:1011A0000199884204D0FFE701208DF80F0044E048
:1011B000FFE702980078400700280CD5FFE743F6C8
:1011C0000801C4F20201086820F4E050029AD268D3
:1011D00010430860FFE702980078000700280DD54B
:1011E000FFE743F60801C4F20201086820F46040FA
:1011F000029A126940EAC2000860FFE700F04CF86A
:1012000043F60801C4F202010968C9B20A0945F2AD
:101210004851C0F60001895CC84040F20001C2F2AA
:101220000001086040F20800C2F200000068FFF709
:101230004DFE00208DF80F00FFE79DF80F0004B071
:1012400080BD000040F20000C2F20000006870475C
:1012500080B5FFF7F7FF43F60801C4F20201096801
:10126000C1F3822245F25851C0F60001895CC840A2
:1012700080BD000080B5FFF7E5FF43F60801C4F22A
:101280000201096889B24A0B45F25851C0F60001C3
:10129000895CC84080BD000080B586B00020059004
:1012A00004900390029043F60800C4F20200006824
:1012B00000F00C000146019140B1FFE701980428BD
:1012C0000AD0FFE7019808280CD04FE042F2004016
:1012D000C0F2F40002904FE047F64000C0F27D10EB
:1012E000029049E043F60400C4F20200016801F0F4
:1012F0003F01059100684002002813D5FFE743F63F
:101300000400C4F202000068C0F3881047F64001F0
:10131000C0F27D11A0FB0101059A0023FEF750FFEA
:10132000049012E043F60400C4F202000068C0F327
:10133000881042F20041C0F2F401A0FB0101059ABD
:101340000023FEF73DFF0490FFE743F60400C4F2DC
:101350000200006800F44031022000EBD13003901D
:1013600004980399B0FBF1F0029005E042F20040CE
:10137000C0F2F4000290FFE7029806B080BD0000C2
:1013800080B586B00490049820B9FFE701208DF85D
:10139000170050E304980078C007002800F0A580EB
:1013A000FFE743F60800C4F20200006800F00C00FA
:1013B000042813D0FFE743F60800C4F202000068D7
:1013C00000F00C0008281ED1FFE743F60400C4F229
:1013D000020000684002002815D5FFE743F6000030
:1013E000C4F20200006800F400310020B0EB514F5D
:1013F00008D0FFE70498406820B9FFE701208DF886
:10140000170018E370E0FFE704984068B0F5803FEC
:1014100009D1FFE743F60001C4F20201086840F475
:101420008030086020E004984068B0F5A02F0DD10E
:10143000FFE743F60001C4F20201086840F480208F
:101440000860086840F4803008600CE043F6000152
:10145000C4F20201086820F480300860086820F4B3
:1014600080200860FFE7FFE7FFE704984068E8B1E5
:10147000FFE7FFF7FBFC0390FFE743F60000C4F231
:101480000200006800F400310020B0EB514F0CD195
:10149000FFE7FFF7EBFC0399401A652804D3FFE749
:1014A00003208DF81700C6E2E7E71CE0FFF7DEFC3B
:1014B0000390FFE743F60000C4F20200006800F466
:1014C00000310020B0EB514F0CD0FFE7FFF7CEFC0E
:1014D0000399401A652804D3FFE703208DF817000D
:1014E000A9E2E7E7FFE7FFE7FFE704980078800756
:1014F000002840F19680FFE743F60800C4F202009E
:10150000006810F00C0F13D0FFE743F60800C4F298
:101510000200006800F00C0008282CD1FFE743F619
:101520000400C4F2020000684002002823D4FFE750
:1015300043F60000C4F20200006800F0020100203F
:10154000B0EB510F09D0FFE70498C068012804D020
:10155000FFE701208DF817006DE243F60001C4F2A9
:101560000201086820F0F800049A126940EAC200FB
:101570000860FFE754E00498C06870B3FFE70021FB
:10158000C4F2472101200860FFF770FC0390FFE7D9
:1015900043F60000C4F20200006800F002010020DF
:1015A000B0EB510F0CD1FFE7FFF760FC0399401A35
:1015B000032804D3FFE703208DF817003BE2E7E799
:1015C00043F60001C4F20201086820F0F800049A12
:1015D000126940EAC200086021E00021C4F24721FC
:1015E00000200860FFF742FC0390FFE743F600008D
:1015F000C4F20200006800F002010020B0EB510FBD
:101600000CD0FFE7FFF732FC0399401A032804D3FC
:10161000FFE703208DF817000DE2E7E7FFE7FFE79C
:10162000FFE704980078000700284BD5FFE70498EF
:10163000406918B3FFE740F68061C4F247210120FA
:101640000860FFF713FC0390FFE743F67400C4F251
:101650000200006800F002010020B0EB510F0CD135
:10166000FFE7FFF703FC0399401A032804D3FFE7C1
:1016700003208DF81700DEE1E7E722E040F6806105
:10168000C4F2472100200860FFF7F0FB0390FFE75A
:1016900043F67400C4F20200006800F0020100206A
:1016A000B0EB510F0CD0FFE7FFF7E0FB0399401AB6
:1016B000032804D3FFE703208DF81700BBE1E7E719
:1016C000FFE7FFE7049800784007002840F1CE804C
:1016D000FFE700208DF8070043F64000C4F2020047
:1016E0000068C000002815D4FFE7FFE70020009045
:1016F00043F64000C4F20200016841F080510160ED
:10170000006800F0805000900098FFE701208DF8FD
:101710000700FFE747F20000C4F200000068C005C0
:10172000002822D4FFE747F20001C4F20001086854
:1017300040F480700860FFF799FB0390FFE747F2E1
:101740000000C4F200000068C00500280CD4FFE7C8
:10175000FFF78CFB0399401A032804D3FFE703200B
:101760008DF8170067E1EAE7FFE7FFE70498806874
:10177000012809D1FFE743F67001C4F202010868AD
:1017800040F0010008601FE00498806805280DD132
:10179000FFE743F67001C4F20201086840F004005C
:1017A0000860086840F0010008600CE043F6700132
:1017B000C4F20201086820F001000860086820F007
:1017C00004000860FFE7FFE7FFE704988068F8B1CE
:1017D000FFE7FFF74BFB0390FFE743F67000C4F20F
:1017E0000200006800F002010020B0EB510F0ED1A2
:1017F000FFE7FFF73BFB0399401A41F2893188422A
:1018000004D3FFE703208DF8170014E1E5E71EE09D
:10181000FFF72CFB0390FFE743F67000C4F20200D1
:10182000006800F002010020B0EB510F0ED0FFE77E
:10183000FFF71CFB0399401A41F28931884204D317
:10184000FFE703208DF81700F5E0E5E7FFE79DF8D7
:101850000700012809D1FFE743F64001C4F2020165
:10186000086820F080500860FFE7FFE7049880696F
:10187000002800F0DC80FFE743F60800C4F2020015
:10188000006800F00C00082800F08580FFE704984D
:10189000806902285CD1FFE76021C4F24721002063
:1018A0000860FFF7E3FA0390FFE743F60000C4F295
:1018B0000200006800F000710020B0EB516F0CD006
:1018C000FFE7FFF7D3FA0399401A032804D3FFE791
:1018D00003208DF81700AEE0E7E70499C869D1F856
:1018E00020C04B6A8A6A40EA0C0040EA8310D203A7
:1018F0004FF6FF739A43A2F580321043C96A40EA5B
:10190000016043F60401C4F2020108606021C4F2E0
:10191000472101200860FFF7A9FA0390FFE743F68B
:101920000000C4F20200006800F000710020B0EB7B
:10193000516F0CD1FFE7FFF799FA0399401A03287A
:1019400004D3FFE703208DF8170074E0E7E721E0F8
:101950006021C4F2472100200860FFF787FA039056
:10196000FFE743F60000C4F20200006800F00071D7
:101970000020B0EB516F0CD0FFE7FFF777FA039927
:10198000401A032804D3FFE703208DF8170052E024
:10199000E7E7FFE74AE004988069012804D1FFE700
:1019A00001208DF8170046E043F60400C4F202005F
:1019B0000068029004988069012831D0FFE70298FE
:1019C00000F480000499C969884229D1FFE7029890
:1019D00000F03F000499096A884221D1FFE702988C
:1019E00047F6C07108400499496AB0EB811F17D1CE
:1019F000FFE7029800F440300499896AC9034FF662
:101A0000FF729143A1F58031884209D1FFE7029826
:101A100000F070600499C96AB0EB016F04D0FFE771
:101A200001208DF8170006E0FFE7FFE7FFE7002041
:101A30008DF81700FFE79DF8170006B080BD000085
:101A400080B582B00190019801F094FB02B080BD96
:101A500081B0009001B0704781B0009001B0704734
:101A600081B0009001B0704784B0029001910020D5
:101A70000090FFE7029890F83C00012804D1FFE7AE
:101A800002208DF80F0044E00299012081F83C000B
:101A9000FFE7FFE7009820F0FF000199C9680843BD
:101AA0000090009820F440700199896808430090E4
:101AB000009820F4806001994968084300900098DC
:101AC00020F400600199096808430090009820F410
:101AD00080500199096908430090009820F4005053
:101AE0000199496908430090009820F480400199C9
:101AF000C969084300900098029909684864FFE7A3
:101B00000299002081F83C00FFE700208DF80F00CB
:101B1000FFE79DF80F0004B07047000085B0039008
:101B20000291FFE7039890F83C00012804D1FFE7F9
:101B300002208DF813007EE00399012081F83C001B
:101B4000FFE7FFE70399022081F83D000398006852
:101B5000406801900398006880680090019820F028
:101B60007000019002980168019808430190019863
:101B7000039909684860039800680021C4F20101D4
:101B800088423CD0FFE703980068B0F1804F36D020
:101B9000FFE70398006840F20041C4F20001884268
:101BA0002DD0FFE70398006840F60001C4F2000161
:101BB000884224D0FFE70398006840F60041C4F251
:101BC000000188421BD0FFE70398006840F2004103
:101BD000C4F20101884212D0FFE70398006844F282
:101BE0000001C4F20101884209D0FFE703980068B0
:101BF00041F60001C4F2000188420ED1FFE70098CF
:101C000020F08000009002984168009808430090FE
:101C10000098039909688860FFE70399012081F81B
:101C20003D00FFE70399002081F83C00FFE700201A
:101C30008DF81300FFE79DF8130005B07047000012
:101C400080B582B00090009820B9FFE701208DF8A0
:101C500007004DE0009890F83D00B0B9FFE700990B
:101C6000002081F83C00009801F0C8FD0098806CCD
:101C700038B9FFE7009941F6F940C0F600008864E2
:101C8000FFE70098816C8847FFE70099022081F800
:101C90003D00009951F8040B01F00AFB0099012066
:101CA00081F84600FFE70099012081F83E00009985
:101CB00081F83F00009981F84000009981F84100C7
:101CC000FFE7FFE70099012081F84200009981F8C1
:101CD0004300009981F84400009981F84500FFE72E
:101CE0000099012081F83D0000208DF80700FFE7F2
:101CF0009DF8070002B080BD80B58EB00D90002029
:101D00000C900B900A90099008900D98006841F291
:101D10000001C4F20001884212D1FFE7FFE7002072
:101D2000079043F64000C4F20200016841F0100140
:101D30000160006800F0100007900798FFE76CE072
:101D40000D98006841F20041C4F2000188421BD1A5
:101D5000FFE7FFE70020069043F64000C4F20200D0
:101D6000016841F020010160006800F02000069049
:101D70000698FFE73720039000221146FFF70EF97F
:101D80000398FFF701F947E00D98006844F200411D
:101D9000C4F2010188423ED1FFE7FFE70020059031
:101DA00043F64400C4F20200016841F400310160CE
:101DB000006800F4003005900598FFE7FFE7002079
:101DC000049043F63000C4F20200016841F00201C1
:101DD0000160006800F0020004900498FFE74FF4EF
:101DE0008070089002200990002001900A900B90CA
:101DF00003200C9040F20040C4F2020008A9FEF754
:101E000029FE019A192002901146FFF7C7F802989F
:101E1000FFF7BAF8FFE7FFE7FFE70EB080BD00006D
:101E200083B00190019890F83D00012804D0FFE7AD
:101E300001208DF80B0064E00199022081F83D003B
:101E4000019800680021C4F2010188423CD0FFE7FC
:101E500001980068B0F1804F36D0FFE70198006824
:101E600040F20041C4F2000188422DD0FFE7019802
:101E7000006840F60001C4F20001884224D0FFE768
:101E80000198006840F60041C4F2000188421BD06E
:101E9000FFE70198006840F20041C4F20101884266
:101EA00012D0FFE70198006844F20001C4F201017A
:101EB000884209D0FFE70198006841F60001C4F2AA
:101EC0000001884212D1FFE701980068806800F0A5
:101ED000070000900098062807D0FFE701980168E6
:101EE000086840F001000860FFE706E0019801681B
:101EF000086840F001000860FFE700208DF80B0043
:101F0000FFE79DF80B0003B07047000083B001901D
:101F1000019890F83D00012804D0FFE701208DF8DA
:101F20000B006AE00199022081F83D0001980168E8
:101F3000C86840F00100C860019800680021C4F240
:101F4000010188423CD0FFE701980068B0F1804F62
:101F500036D0FFE70198006840F20041C4F200016A
:101F600088422DD0FFE70198006840F60001C4F2D6
:101F70000001884224D0FFE70198006840F6004144
:101F8000C4F2000188421BD0FFE70198006840F2CC
:101F90000041C4F20101884212D0FFE701980068B5
:101FA00044F20001C4F20101884209D0FFE7019820
:101FB000006841F60001C4F20001884212D1FFE737
:101FC00001980068806800F00700009000980628DB
:101FD00007D0FFE701980168086840F00100086039
:101FE000FFE706E001980168086840F0010008601A
:101FF000FFE700208DF80B00FFE79DF80B0003B012
:102000007047000081B0009001B0704781B000902F
:1020100001B0704781B0009001B0704780B586B0C4
:1020200004900391029200208DF80700FFE70498C6
:1020300090F83C00012804D1FFE702208DF817003A
:1020400080E00499012081F83C00FFE7FFE7029857
:10205000B0B9FFE704980068039B19685A68DB6809
:1020600001F02CFC04980168886920F00C0088615C
:10207000039882680498016888691043886156E073
:102080000298042817D1FFE704980068039B196899
:102090005A68DB6801F09EFC04980168886920F4A6
:1020A000406088610398826804980168886940EA02
:1020B000022088613AE00298082816D1FFE70498C8
:1020C0000068039B19685A68DB6801F0B9FC049842
:1020D0000168C86920F00C00C86103988268049800
:1020E0000168C8691043C8611FE002980C2817D125
:1020F000FFE704980068039B19685A68DB6801F0E1
:10210000D5FC04980168C86920F44060C861039850
:10211000826804980168C86940EA0220C86103E047
:1021200001208DF80700FFE7FFE7FFE7FFE7FFE784
:102130000499002081F83C00FFE79DF807008DF826
:102140001700FFE79DF8170006B080BD80B582B08C
:102150000090009820B9FFE701208DF807004DE0BE
:10216000009890F83D00B0B9FFE70099002081F891
:102170003C00009801F042FB0098006D38B9FFE781
:10218000009942F20520C0F600000865FFE70098BC
:10219000016D8847FFE70099022081F83D00009912
:1021A00051F8040B01F084F80099012081F84600F1
:1021B000FFE70099012081F83E00009981F83F0077
:1021C000009981F84000009981F84100FFE7FFE79E
:1021D0000099012081F84200009981F8430000999C
:1021E00081F84400009981F84500FFE7009901203B
:1021F00081F83D0000208DF80700FFE79DF80700FB
:1022000002B080BD81B0009001B0704780B582B04F
:10221000019001980068006900F002010020B0EB15
:10222000510F2BD0FFE701980068C06800F0020151
:102230000020B0EB510F20D0FFE7019801686FF04C
:1022400002000861019901200877019800688069FF
:10225000800728B1FFE70198D0F89010884708E080
:102260000198D0F8981088470198D0F89C108847BA
:10227000FFE7019900200877FFE7FFE70198006872
:10228000006900F004010020B0EB910F2CD0FFE7B3
:1022900001980068C06800F004010020B0EB910FC5
:1022A00021D0FFE7019801686FF0040008610199EF
:1022B0000220087701980068806910F4407F05D0FB
:1022C000FFE70198D0F89010884708E00198D0F80F
:1022D000981088470198D0F89C108847FFE701992B
:1022E00000200877FFE7FFE701980068006900F029
:1022F00008010020B0EBD10F2BD0FFE70198006858
:10230000C06800F008010020B0EBD10F20D0FFE73B
:10231000019801686FF008000861019904200877AE
:1023200001980068C069800728B1FFE70198D0F8DC
:102330009010884708E00198D0F8981088470198D5
:10234000D0F89C108847FFE7019900200877FFE745
:10235000FFE701980068006900F010010020B0EB71
:10236000111F2CD0FFE701980068C06800F0100131
:102370000020B0EB111F21D0FFE7019801686FF03A
:102380001000086101990820087701980068C06969
:1023900010F4407F05D0FFE70198D0F890108847EF
:1023A00008E00198D0F8981088470198D0F89C1060
:1023B0008847FFE7019900200877FFE7FFE70198CA
:1023C00000680069C00788B1FFE701980068C0682D
:1023D000C00750B1FFE7019801686FF00100086184
:1023E0000198D0F880108847FFE7FFE70198006860
:1023F0000069C1B20020B0EBD11F14D0FFE70198F3
:102400000068C068C1B20020B0EBD11F0AD0FFE75E
:10241000019801686FF0800008610198D0F8B01051
:102420008847FFE7FFE701980068006900F0400176
:102430000020B0EB911F15D0FFE701980068C0683D
:1024400000F040010020B0EB911F0AD0FFE7019897
:1024500001686FF0400008610198D0F88810884743
:10246000FFE7FFE701980068006900F02001002005
:10247000B0EB511F15D0FFE701980068C06800F06D
:1024800020010020B0EB511F0AD0FFE7019801683E
:102490006FF0200008610198D0F8A8108847FFE786
:1024A000FFE702B080BD000080B588B00790002033
:1024B0000690059004900390029007980068002110
:1024C000C4F20101884223D1FFE7FFE70020019019
:1024D00043F63000C4F20200016841F010010160CF
:1024E000006800F0100001900198FFE74FF40070C1
:1024F0000290022003900020049005900120069095
:1025000041F20000C4F2020002A9FEF7A3FAFFE7BD
:1025100008B080BD81B0009001B0704780B584B034
:1025200002900191029820B9FFE701208DF80F0079
:1025300046E0029890F83D00B0B9FFE7029900200C
:1025400081F83C00029801F059F90298806E38B980
:10255000FFE7029942F2C950C0F600008866FFE723
:102560000298816E8847FFE70299022081F83D00BA
:10257000029951F8040B00F09BFE0298016808686C
:1025800020F008000860019A02980168086810436A
:1025900008600299012081F84600029981F83E0006
:1025A000029981F83F00029981F84200029981F86E
:1025B0004300029981F83D0000208DF80F00FFE7ED
:1025C0009DF80F0004B080BD81B0009001B070474D
:1025D00080B586B004900391029200208DF8070028
:1025E000FFE7049890F83C00012804D1FFE702209F
:1025F0008DF8170089E00499012081F83C00FFE77D
:10260000FFE7029800900C2800F270800099DFE844
:1026100001F0076D6D6D206D6D6D3A6D6D6D530040
:1026200004980068039900F02DFF049801688869F8
:1026300040F00800886104980168886920F004006F
:102640008861039802690498016888691043886169
:1026500050E004980068039900F08AFF049801682C
:10266000886940F40060886104980168886920F4F2
:10267000806088610398026904980168886940EA6B
:102680000220886136E004980068039900F0EAFFB0
:1026900004980168C86940F00800C861049801689E
:1026A000C86920F00400C8610398026904980168B1
:1026B000C8691043C8611DE004980068039901F0DF
:1026C0004BF804980168C86940F40060C861049838
:1026D0000168C86920F48060C861039802690498A1
:1026E0000168C86940EA0220C86103E001208DF852
:1026F0000700FFE7FFE70499002081F83C00FFE7AF
:102700009DF807008DF81700FFE79DF8170006B049
:1027100080BD000080B582B00090009820B9FFE72E
:1027200001208DF807004DE0009890F83D00B0B909
:10273000FFE70099002081F83C00009801F05EF866
:102740000098006E38B9FFE7009942F2CD70C0F6EC
:1027500000000866FFE70098016E8847FFE70099D0
:10276000022081F83D00009951F8040B00F0A0FD13
:102770000099012081F84600FFE70099012081F8C7
:102780003E00009981F83F00009981F840000099CF
:1027900081F84100FFE7FFE70099012081F842003E
:1027A000009981F84300009981F84400009981F86C
:1027B0004500FFE70099012081F83D0000208DF8D9
:1027C0000700FFE79DF8070002B080BD80B584B028
:1027D0000390039800680021C4F2010188421BD1D4
:1027E000FFE7FFE70020029043F64400C4F2020036
:1027F000016841F001010160006800F001000290F1
:102800000298FFE71920019000221146FEF7C6FB4F
:102810000198FEF7B9FBFFE704B080BD81B00090DE
:1028200001B0704781B0009001B0704780B58CB0A6
:102830000A900991099828B9FFE70A9890F83E0094
:1028400007901CE00998042805D1FFE70A9890F842
:102850003F00069010E00998082805D1FFE70A9884
:1028600090F84000059004E00A9890F84100059027
:10287000FFE705980690FFE706980790FFE707989F
:10288000012804D0FFE701208DF82F00AFE0099860
:1028900028B9FFE70A99022081F83E001EE0099856
:1028A000042806D1FFE70A99022081F83F0004902E
:1028B00012E00998082806D1FFE70A99022081F85A
:1028C0004000039005E00A99022081F8410003903E
:1028D000FFE703980490FFE70498FFE70A98006871
:1028E00009990122019200F0B1FD01980A99096845
:1028F0000022C4F20102914202900CD0FFE70A9834
:1029000000684FF60041CBF6FE710844B0FA80F043
:1029100040090290FFE70298C00738B1FFE70A9824
:102920000168486C40F400404864FFE70A9800687A
:102930000021C4F2010188423CD0FFE70A980068F8
:10294000B0F1804F36D0FFE70A98006840F20041AE
:10295000C4F2000188422DD0FFE70A98006840F6D3
:102960000001C4F20001884224D0FFE70A98006801
:1029700040F60041C4F2000188421BD0FFE70A98EC
:10298000006840F20041C4F20101884212D0FFE722
:102990000A98006844F20001C4F20101884209D09B
:1029A000FFE70A98006841F60001C4F2000188427E
:1029B00012D1FFE70A980068806800F007000890CD
:1029C0000898062807D0FFE70A980168086840F0D1
:1029D00001000860FFE706E00A980168086840F017
:1029E00001000860FFE700208DF82F00FFE79DF849
:1029F0002F000CB080BD000080B582B0019001981E
:102A000040F2D001C2F20001884208D1FFE702F093
:102A1000DFF802F0CBF8002002F07AF8FFE7019827
:102A200040F23821C2F20001884203D1FFE701F0F1
:102A300073F9FFE702B080BD81B0009001B070472C
:102A400081B0009001B0704781B0009001B0704734
:102A500080B582B00090009820B9FFE701208DF882
:102A600007003EE00098806908B1FFE700E0FFE75B
:102A7000009890F83D0040B9FFE70099002081F8E8
:102A80003C00009800F032F8FFE70099242081F81C
:102A90003D0000980168C86820F40050C8600098A4
:102AA00001F03AF800980168086920F49040086144
:102AB00000980168486920F02A0048610098016880
:102AC000C86840F40050C860009900200864009A6B
:102AD000202182F83D10009A82F83E108DF8070000
:102AE000FFE79DF8070002B080BD000080B588B008
:102AF000079000200690059004900390029007989C
:102B0000006844F60041C4F20001884232D1FFE778
:102B1000FFE70020019043F64000C4F20200016884
:102B200041F400210160006800F400200190019848
:102B3000FFE7FFE70020009043F63000C4F20200F8
:102B4000016841F001010160006800F0010000909F
:102B50000098FFE7032002900221039100210491D5
:102B60000590082006900020C4F2020002A9FDF79B
:102B700071FFFFE708B080BDFFE7FEE780B59AB0C0
:102B8000002019901890179016901590FFE70020DC
:102B9000149043F63000C4F20200016841F01001C5
:102BA0000160006800F0100014901498FFE7FFE740
:102BB0000020139043F63000C4F20200016841F097
:102BC00004010160006800F0040013901398FFE70F
:102BD000FFE70020129043F63000C4F202000168C3
:102BE00041F080010160006800F0800012901298AE
:102BF000FFE7FFE70020119043F63000C4F2020027
:102C0000016841F001010160006800F001001190CD
:102C10001198FFE7FFE70020109043F63000C4F260
:102C20000200016841F002010160006800F002004A
:102C300010901098FFE7FFE700200F9043F6300058
:102C4000C4F20200016841F008010160006800F070
:102C500008000F900F98FFE741F20000C4F2020055
:102C600001904FF68041009100220D92FEF7E6F8A8
:102C70000D9A40F60040C4F20200049048F2800130
:102C80000391FEF7DBF80D9A40F20040C4F2020017
:102C90000A9020210891FEF7D1F801980D9940F291
:102CA0007F121592032202921692179115A90B9189
:102CB000FDF7D0FE029A0B990D984FF2BF43159382
:102CC0001692179040F60000C4F202000590FDF73E
:102CD000C1FE029A0B990D9815921692179041F623
:102CE0000040C4F20200FDF7B5FE029A0B990D9860
:102CF00041F6DC731593169217900020C4F202007F
:102D00000790FDF7A7FE0798089B0B990D9A15935E
:102D10000223169317921892012209921992FDF735
:102D200099FE029B0A980B990D9A4FF6CF6CCDF83D
:102D300054C016931792FDF78DFEDDF800C0019880
:102D4000099B0B990D9ACDF854C0169317921892BF
:102D5000FDF780FE029B04980B990D9A47F27F7C49
:102D6000CDF854C016931792FDF774FE04980B9992
:102D70000D9A4FF40063159316921792FDF76AFEB1
:102D8000DDF80CC00498099B0B990D9ACDF854C03E
:102D9000169317921892FDF75DFE05980B990D9A00
:102DA0004FF4346315934FF404130693169317925C
:102DB000FDF750FE069B07980B990D9A4FF4004CB7
:102DC000CDF854C016931792FDF744FE0A980B995C
:102DD0000D9A1023159316921792FDF73BFEDDF81E
:102DE00020C0099B0A980B990D9ACDF854C01693F0
:102DF00017921892FDF72EFE0D9A17200C9011468F
:102E0000FEF7CCF80C98FEF7BFF80D9A28200E902C
:102E10001146FEF7C3F80E98FEF7B6F81AB080BD5B
:102E200080B584B00021039102910191009140F29C
:102E3000D000C2F2000044F20042C4F2010202607B
:102E40000F224260816040F6B832C2600161816148
:102E5000FEF7F6FE18B1FFE7FDF73AFDFFE740F297
:102E6000D000C2F20000FFF771F918B1FFE7FDF7DB
:102E70002FFDFFE7002200920120019002920392B1
:102E800040F2D000C2F200006946FFF7C7F818B15F
:102E9000FFE7FDF71DFDFFE704B080BD80B594B0EE
:102EA0000021019113911291119110910F910E91A6
:102EB0000D910C910B910A9109910891079106913E
:102EC00005910491039140F21C00C2F200000290AF
:102ED0000022C4F2010202600F224260816040F2CF
:102EE000FF32C260016141618161FFF713FC18B1DB
:102EF000FFE7FDF7EDFCFFE700201290139040F292
:102F00001C00C2F2000012A9FEF708FE18B1FFE78C
:102F1000FDF7DEFCFFE760200B904FF480600C9023
:102F200000220D920E920F921092119240F21C000C
:102F3000C2F200000BA9FFF74BFB18B1FFE7FDF74A
:102F4000C7FCFFE740F21C00C2F200000268916972
:102F500021F00801916100210391049105910691EE
:102F600007914FF4005208920A9103A9FEF77CFDE5
:102F700018B1FFE7FDF7ACFCFFE740F21C00C2F21E
:102F80000000FFF791FA14B080BD000080B582B058
:102F900000210191009140F28410C2F2000041F240
:102FA0000002C4F2000202600F22426081604FF60C
:102FB000FF72C2608161FEF743FE18B1FFE7FDF7C3
:102FC00087FCFFE740F28410C2F200000821FFF7FF
:102FD000A5FA18B1FFE7FDF77BFCFFE700200090A2
:102FE000019040F28410C2F200006946FEF796FD9F
:102FF00018B1FFE7FDF76CFCFFE702B080BD0000F1
:1030000080B582B000210191009140F23820C2F2D7
:10301000000041F20042C4F20002026043F67F6207
:103020004260816040F6B732C2608161FEF708FEFF
:1030300018B1FFE7FDF74CFCFFE70020009001907E
:1030400040F23820C2F200006946FEF767FD18B171
:10305000FFE7FDF73DFCFFE702B080BD80B582B021
:1030600040F2EC20C2F20000019044F60041C4F2AC
:10307000000101604FF4E131416000218160C160D5
:1030800001610C2242618161C161FFF7E1FC18B16D
:10309000FFE7FDF71DFCFFE702B080BDFFE7FEE79D
:1030A000FFE7FEE788B0079006910592079800F0C9
:1030B000070004900498C0F10700052803D3FFE738
:1030C0000420019004E00498C0F107000190FFE79C
:1030D0000198039004980430062803D8FFE70020E5
:1030E000009003E0049803380090FFE700980290F6
:1030F00006980399012202FA01F101390840029B66
:10310000984005999A40013A1140084308B0704729
:10311000704700007047000080B588B00790ADF898
:103120001A10002005900490039002900190BDF8C1
:103130001A10019102900390079801A9FDF78AFCEB
:1031400008B080BD80B588B00790ADF81A10002097
:1031500005900490039002900190BDF81A1001911F
:10316000012102910490079801A9FDF773FC08B0B2
:1031700080BD000080B582B0009000980138B0F1A9
:10318000807F03D3FFE70120019019E00098013808
:103190004EF21401CEF2000108604FF0FF300F2113
:1031A00000F07AFD4EF21801CEF200010020086016
:1031B0004EF21002CEF20002072111600190FFE7EB
:1031C000019802B080BD000080B5FDF755FE80BDBE
:1031D00080B594B008A83021FDF72AF800200790A8
:1031E0000690059004900390FFE70020029043F6BC
:1031F0004000C4F20200016841F0805101600068A3
:1032000000F0805002900298FFE7FFE70020019055
:1032100047F20000C4F20000016841F480410160FF
:10322000006800F4804001900198FFE702200890B8
:1032300001200B9010200C9000200E9008A8FEF7A3
:103240009FF818B1FFE7FDF743FBFFE70F2003905E
:103250000021049105910691079103A8FDF7C0FE96
:1032600018B1FFE7FDF734FBFFE714B080BD0000A5
:103270004EF68851CEF20001086840F470000860F4
:103280007047000080B540F21C00C2F20000FEF75B
:10329000BDFF40F2D000C2F20000FEF7B7FF80BDD4
:1032A00080B540F23820C2F20000FEF7AFFF80BDCB
:1032B00083B002900191029800680090029800216A
:1032C000C4F20101884225D0FFE70298B0F1804F97
:1032D00020D0FFE7029840F20041C4F2000188428A
:1032E00018D0FFE7029840F60001C4F200018842BE
:1032F00010D0FFE7029840F60041C4F20001884276
:1033000008D0FFE7029840F20041C4F20101884270
:103310000AD1FFE7009820F0700000900198416802
:10332000009808430090FFE702980021C4F20101D1
:10333000884255D0FFE70298B0F1804F50D0FFE7A8
:10334000029840F20041C4F20001884248D0FFE7F1
:10335000029840F60001C4F20001884240D0FFE725
:10336000029840F60041C4F20001884238D0FFE7DD
:10337000029840F20041C4F20101884230D0FFE7D8
:10338000029844F20001C4F20101884228D0FFE70C
:10339000029844F20041C4F20101884220D0FFE7C4
:1033A000029844F60001C4F20101884218D0FFE7F8
:1033B000029841F60001C4F20001884210D0FFE7F4
:1033C000029841F60041C4F20001884208D0FFE7AC
:1033D000029842F20001C4F2000188420AD1FFE7DC
:1033E000009820F4407000900198C168009808434C
:1033F0000090FFE7009820F0800001994969084398
:103400000090009802990860019880680299C8624B
:10341000019800680299886202980021C4F20101B3
:10342000884208D0FFE7029840F20041C4F201014F
:10343000884205D1FFE70198006902990863FFE718
:1034400002990120486103B07047000084B00390E6
:1034500002910192029800F01F0101208840009023
:10346000009A0399086A904308620198029901F052
:103470001F0100FA01F20399086A1043086204B0C0
:103480007047000085B0049003910499086A20F009
:10349000010008620498006A019004984068009056
:1034A000049880690290029820F0700002900298BF
:1034B00020F00300029003980168029808430290EC
:1034C000019820F002000190039881680198084358
:1034D000019004980021C4F20101884208D0FFE75E
:1034E000049840F20041C4F2010188420ED1FFE786
:1034F000019820F0080001900398C16801980843E2
:103500000190019820F004000190FFE70498002149
:10351000C4F20101884208D0FFE7049840F200415C
:10352000C4F20101884213D1FFE7009820F48070B3
:103530000090009820F40070009003984169009872
:103540000843009003988169009808430090FFE7C2
:10355000009804994860029804998861039840682B
:103560000499486301980499086205B07047000007
:1035700085B0049003910499086A20F01000086255
:103580000498006A0190049840680090049880694B
:103590000290029820F4E0400290029820F44070DB
:1035A000029003980168029840EA01200290019875
:1035B00020F02000019003988168019840EA0110F2
:1035C000019004980021C4F20101884208D0FFE76D
:1035D000049840F20041C4F2010188420FD1FFE794
:1035E000019820F0800001900398C168019840EA9A
:1035F00001100190019820F040000190FFE704982D
:103600000021C4F20101884208D0FFE7049840F28B
:103610000041C4F20101884215D1FFE7009820F46F
:1036200080600090009820F4006000900398416949
:10363000009840EA8100009003988169009840EA70
:1036400081000090FFE7009804994860029804996F
:103650008861039840680499886301980499086216
:1036600005B0704785B0049003910499086A20F46E
:10367000807008620498006A019004984068009085
:103680000498C0690290029820F07000029002989D
:1036900020F003000290039801680298084302900A
:1036A000019820F40070019003988168019840EA25
:1036B0000120019004980021C4F20101884208D041
:1036C000FFE7049840F20041C4F2010188420FD1A3
:1036D000FFE7019820F4006001900398C168019809
:1036E00040EA01200190019820F480600190FFE7FA
:1036F00004980021C4F20101884208D0FFE7049831
:1037000040F20041C4F20101884215D1FFE7009860
:1037100020F480500090009820F40050009003980E
:103720004169009840EA011000900398816900986F
:1037300040EA01100090FFE7009804994860029861
:103740000499C861039840680499C8630198049972
:10375000086205B07047000085B004900391049999
:10376000086A20F4805008620498006A0190049866
:10377000406800900498C0690290029820F4E040EC
:103780000290029820F44070029003980168029819
:1037900040EA01200290019820F400500190039823
:1037A0008168019840EA0130019004980021C4F238
:1037B0000101884208D0FFE7049840F20041C4F2BA
:1037C000010188420BD1FFE7009820F4804000906F
:1037D00003984169009840EA81100090FFE7009843
:1037E0000499486002980499C86103984068049954
:1037F000086401980499086205B0704781B0009090
:10380000009942F6F910C0F60000C1F88000009956
:1038100042F63920C0F60000C1F88400009942F653
:103820004120C0F60000C1F88800009942F6492006
:10383000C0F60000C1F88C00009942F20D00C0F6FD
:103840000000C1F89000009942F21500C0F6000097
:10385000C1F89400009942F21550C0F60000C1F87A
:103860009800009942F61D00C0F60000C1F89C00C7
:10387000009942F62500C0F60000C1F8A0000099AA
:1038800042F20500C0F60000C1F8A400009941F61C
:103890005920C0F60000C1F8A800009941F6612047
:1038A000C0F60000C1F8AC00009941F65120C0F606
:1038B0000000C1F8B00001B07047000087B006906A
:1038C0000591049203930699086A20F001000862AA
:1038D0000698806902900698006A01900699012076
:1038E0000022C4F201029142009044D0FFE7069901
:1038F0000120B1F1804F00903DD0FFE706990120F3
:1039000040F20042C4F200029142009033D0FFE73F
:103910000699012040F60002C4F200029142009094
:1039200029D0FFE70699012040F60042C4F20002C8
:10393000914200901FD0FFE70699012040F200421B
:10394000C4F201029142009015D0FFE706990120D0
:1039500044F20002C4F20102914200900BD0FFE752
:1039600006984EF60001CBF6FF710844B0FA80F0DD
:1039700040090090FFE70098C00748B1FFE70298B0
:1039800020F003000290049902980843029004E09A
:10399000029840F001000290FFE7029820F0F0004A
:1039A000029003980001C1B2029808430290019866
:1039B00020F00A000190059800F00A0101980843E0
:1039C000019002980699886101980699086207B0EB
:1039D0007047000086B00590049103920293059908
:1039E000086A20F010000862059880690190059827
:1039F000006A0090019820F44070019003990198AA
:103A000040EA01200190019820F470400190029852
:103A1000000381B2019808430190009820F0A000B3
:103A20000090049800F00A01009840EA011000900C
:103A300001980599886100980599086206B0704759
:103A400086B005900491039202930599086A20F4C8
:103A5000807008620598C06901900598006A00901E
:103A6000019820F003000190039901980843019008
:103A7000019820F0F000019002980001C1B2019875
:103A800008430190009820F420600090049800F012
:103A90000A01009840EA0120009001980599C86148
:103AA00000980599086206B07047000086B005903E
:103AB0000491039202930599086A20F480500862E9
:103AC0000598C06901900598006A0090019820F45B
:103AD000407001900399019840EA012001900198FB
:103AE00020F4704001900298000381B201980843CD
:103AF0000190009820F420400090049800F00A0102
:103B0000009840EA0130009001980599C86100983A
:103B10000599086206B0704780B586B00590059893
:103B20000068006920F44050059A1168D26810437B
:103B30000861059988680B694A69C9691843104387
:103B40000843049005980068C06849F20C618843F6
:103B50000499084305990968C86005980068406998
:103B600020F44070059A11689269104348610598E5
:103B7000006841F20001C4F20101884209D0FFE768
:103B80000598006841F20041C4F20101884204D165
:103B9000FFE7FDF76FFB039003E0FDF759FB039090
:103BA000FFE70598C069B0F5004F29D1FFE70398FA
:103BB0001921A0FB0101059A1368029353685A006A
:103BC000DB0FFCF7FDFA0299864648F21F53C5F257
:103BD000EB13AEFB0320420910014FF0640C02FB13
:103BE0001CEC322202EBCC02A2FB0332F82303EAE4
:103BF000521300EB4300C2F342121044886026E0E7
:103C000003981921A0FB0101059A136801935368D9
:103C10009A009B0FFCF7D4FA0199844648F21F5290
:103C2000C5F2EB12ACFB02304309642003FB10CC5D
:103C3000322000EB0C10A0FB0202F02000EA521030
:103C400000EB0310C2F3431210448860FFE706B094
:103C500080BD0000FFE7FEE781B08DF803009DF90D
:103C6000030000280ED4FFE79DF9031001F01F02A6
:103C7000012090404A094EF20011CEF2000141F8B5
:103C80002200FFE701B070474EF60C50CEF2000064
:103C90000068C0F30220704782B08DF807000091E1
:103CA0009DF9070000280AD4FFE7009800019DF95C
:103CB00007104EF20042CEF2000288540BE000984A
:103CC00000019DF8071001F00F014EF61452CEF2DC
:103CD00000028854FFE702B07047000083B00290F2
:103CE000029800F0070000904EF60C51CEF2000151
:103CF0000868019001984FF6FF021040019001986A
:103D0000009A40EA02200022C0F2FA5210430190C9
:103D10000198086003B0704780B584B0FCF79AFD45
:103D2000FCF70AFD40F21001C2F200010870FCF736
:103D30003BFD40F21101C2F2000100910870FCF756
:103D400033FD40F21201C2F2000101910870FCF74C
:103D50002BFD40F21601C2F2000102910870FCF73F
:103D600023FD40F21701C2F2000103910870FCF735
:103D70001BFD0099DDF804C0029B039A864640F2C1
:103D80001400C2F20000A0F800E0008809789CF856
:103D900000C061441B78194412781144884211D143
:103DA000FFE740F21600C2F20000007840F218016E
:103DB000C2F20001087040F21100C2F20000007867
:103DC0004870FFE704B080BD81B040F21800C2F235
:103DD00000000088ADF80000BDF8000001B0704799
:103DE00080B500F0CFFE80BD80B5002000F0D8F88F
:103DF00000F00AF8102000F0D3F800F005F84FF4B6
:103E0000FA6000F091FE80BD80B584B041F2000000
:103E1000C4F2020001904FF4006102910122FDF70B
:103E20000DF81420039000F07FFE01980299002203
:103E3000FDF704F8039800F077FE04B080BD0000A1
:103E400080B586B0642000F06FFE0020059000F081
:103E5000A7F83C20FCF744FD059A41F20000C4F2AB
:103E60000200019080210391FCF7E8FF0198059A78
:103E70004FF48061FCF7E2FF2020029000F090F800
:103E8000FFF7C2FF029800F08BF8FFF7BDFF039821
:103E900000F086F8FFF7B8FF2820049000F044FEF9
:103EA000059800F07DF8FFF7AFFFC02000F078F82C
:103EB000FFF7AAFF049800F037FE059800F070F8AD
:103EC000FFF7A2FF102000F06BF8FFF79DFF4FF403
:103ED000FA6000F029FE059800F062F8FFF794FF01
:103EE000602000F05DF8FFF78FFF06B080BD000096
:103EF00080B582B08DF807008DF806109DF8060099
:103F00008DF805009DF80700012807D1FFE79DF80F
:103F1000050040F040008DF80500FFE79DF8050022
:103F200040F0800000F002F802B080BD80B582B0A1
:103F30008DF807009DF8070000F032F8FFF764FFE6
:103F40009DF8070000F00F00000100F029F8FFF7CE
:103F50005BFF02B080BD000080B584B08DF80F001B
:103F600041F20000C4F2020001908021029101227E
:103F7000FCF764FF9DF80F0000F012F8FFF744FF14
:103F80009DF80F0000F00F00000100F009F8FFF7A6
:103F90003BFF019802990022FCF750FF04B080BD5E
:103FA00080B584B08DF80F0041F20000C4F2020029
:103FB00001904FF4004100220292FCF73FFF01986C
:103FC000029A4FF48041FCF739FF0198029A4FF4AE
:103FD0000051FCF733FF0198029A4FF48051FCF72F
:103FE0002DFF9DF80F00000600280AD5FFE741F2DB
:103FF0000000C4F202004FF400410122FCF71EFF52
:10400000FFE79DF80F00400600280AD5FFE741F2C0
:104010000000C4F202004FF480410122FCF70EFFC1
:10402000FFE79DF80F00800600280AD5FFE741F260
:104030000000C4F202004FF400510122FCF7FEFE22
:10404000FFE79DF80F00C00600280AD5FFE741F200
:104050000000C4F202004FF480510122FCF7EEFE92
:10406000FFE704B080BD000080B582B001908DF8FC
:10407000031000208DF802008DF80200FFE79DF884
:1040800002009DF8031088420DDAFFE701989DF8C1
:104090000210405CFFF760FFFFE79DF8020001306F
:1040A0008DF80200EBE702B080BD000080B584B05F
:1040B000002002900390FCF7EDFEFFF789F8FEF771
:1040C0005DFDFEF7CBFFFEF761FFFEF7E7FEFEF7B3
:1040D000A7FEFEF795FFFFF7B3FE00F05FFB00F0D1
:1040E0000FFDFFF77DFE00F057FD40F21C00C2F20D
:1040F00000000190FDF794FE02990198FEF796FBEF
:10410000029A40F60040C4F202004FF40041FCF76E
:1041100095FEFFE700F0DEF9082803D1FFE700F085
:1041200027F823E000F0D6F9402803D1FFE700F09C
:10413000C1FA1AE000F0CEF9802803D1FFE700F0C1
:1041400041FC11E000F0C6F9102803D1FFE700F0B0
:1041500003F908E000F0BEF9202803D1FFE700F0E2
:1041600025FBFFE7FFE7FFE7FFE7FFE7D2E70000F8
:1041700080B586B010208DF81700FFF735FE0020BF
:10418000049001210291FFF7B3FE45F26050C0F6A2
:1041900000000C210391FFF767FF02990846FFF723
:1041A000A7FE039945F27850C0F60000FFF75CFFC8
:1041B000049A40F60040C4F202004FF40041FCF7BC
:1041C0003DFEFFE700F096FC012857D1FFE79DF880
:1041D00017007F2852DCFFE79DF8170040008DF89C
:1041E0001700FFF701FE002001210191FFF780FE7B
:1041F00045F26050C0F600000C21FFF735FF019931
:104200000846FFF775FE9DF81700102808D1FFE754
:1042100045F27850C0F600000C21FFF725FF29E099
:104220009DF81700202808D1FFE745F26D50C0F631
:1042300000000A21FFF718FF1BE09DF81700402837
:1042400008D1FFE745F28C50C0F600000421FFF7CB
:104250000BFF0DE09DF81700802808D1FFE745F21D
:10426000A550C0F600000821FFF7FEFEFFE7FFE7BC
:10427000FFE7FFE7002000F04BFC6AE000F03AFCAB
:10428000022857D1FFE79DF81700112852DBFFE7FE
:104290009DF8170040088DF81700FFF7A5FD0020D6
:1042A00001210091FFF724FE45F26050C0F60000A6
:1042B0000C21FFF7D9FE00990846FFF719FE9DF87B
:1042C0001700102808D1FFE745F27850C0F600002B
:1042D0000C21FFF7C9FE29E09DF81700202808D11E
:1042E000FFE745F26D50C0F600000A21FFF7BCFE63
:1042F0001BE09DF81700402808D1FFE745F28C50DD
:10430000C0F600000421FFF7AFFE0DE09DF8170096
:10431000802808D1FFE745F2A550C0F6000008212B
:10432000FFF7A2FEFFE7FFE7FFE7FFE7002000F04F
:10433000EFFB0DE000F0DEFB102808D1FFE79DF851
:10434000170000F059FA002000F0E2FB02E0FFE75E
:10435000FFE737E706B080BD80B58CB0FFF744FDBE
:10436000002104910846FFF7C3FDFFF73DFD0499C6
:104370008DF82C100A918DF827100846FFF7B8FD2C
:1043800045F29150C0F600000421FFF76DFE04983D
:104390000921FFF7ADFD45F28850C0F6000003216A
:1043A000FFF762FE04980521FFF7A2FDFFF70CFD61
:1043B000ADF824009DF824008DF827009DF82720F3
:1043C00045F28551C0F6000103910AA8059000F05E
:1043D00039FC0598FBF737FF01460598C9B2FFF78E
:1043E00043FEFFF7F1FC039902460598ADF8202043
:1043F0009DF821208DF827209DF8272000F022FC31
:1044000004980D21FFF774FD0598FBF71CFF01468A
:104410000598C9B2FFF728FE40F60040C4F202003A
:104420004FF400410122FCF709FDFFE741F224406F
:10443000C4F20000006832283CD1FFE70020019060
:104440000521FFF755FDFFF7BFFCADF81C009DF8F7
:104450001C008DF827009DF8272045F28551C0F6F5
:10446000000100910AA8029000F0ECFB0298FBF713
:10447000EAFE01460298C9B2FFF7F6FDFFF7A4FC79
:10448000009902460298ADF818209DF819208DF881
:1044900027209DF8272000F0D5FB01980D21FFF77C
:1044A00027FD0298FBF7CFFE01460298C9B2FFF73D
:1044B000DBFDFFE700F01EFB102807D1FFE7082017
:1044C00000F09AF9002000F023FB00E0AEE70CB00A
:1044D00080BD000040F23030C2F20000007870472A
:1044E00080B592B08DF8470000F088FB0146099135
:1044F000032800F2DC800999DFE801F002488ABD58
:10450000FFF772FC00F06CFBADF844009DF845002D
:10451000069000F065FB01460698ADF840109DF846
:104520004010FFF7E5FC3E208DF846000DF14600F7
:10453000079001210891FFF797FD08990020FFF7E8
:10454000D7FC45F2CE50C0F600000C21FFF78CFDE1
:1045500008990846FFF7CCFC45F2AE50C0F60000C3
:104560000F21FFF781FD0898D9218DF846100E2103
:10457000FFF7BEFC07980899FFF776FD07980899A2
:10458000DA228DF84620FFF76FFD90E0FFF72CFC54
:1045900000F026FBADF83C009DF83D00039000F0D4
:1045A0001FFB01460398ADF838109DF83810FFF74F
:1045B0009FFC3E208DF846000DF14600049001213D
:1045C0000591FFF751FD05990020FFF791FC45F299
:1045D000BE50C0F600000F21FFF746FD05990846C2
:1045E000FFF786FC04980599D9228DF84620FFF73D
:1045F0003BFD04980599DA228DF84620FFF734FD3B
:1046000045F2E650C0F600000C21FFF72DFD4EE00C
:10461000FFF7EAFB00F0E4FAADF834009DF835004E
:10462000019000F0DDFA01460198ADF830109DF8D8
:104630003010FFF75DFC3E208DF846000DF146007E
:1046400001210291FFF710FD02990020FFF750FCB5
:1046500045F2DB50C0F600000A21FFF705FD029984
:104660000846FFF745FC45F2F350C0F600000D2167
:10467000FFF7FAFC1BE0FFF7B7FB00F0B1FAADF86B
:104680002C009DF82D00009000F0AAFA0146009839
:10469000ADF828109DF82810FFF72AFC3E208DF871
:1046A00046000DF146000121FFF7DEFCFFE712B0E6
:1046B00080BD000080B586B00020019000F0B6FA01
:1046C0000199084600F0A0FA00F098FAFFF708FFF9
:1046D000FFE700F00FFA012827D1FFE700F080FA8A
:1046E000ADF814009DF81500012805D1FFE7002161
:1046F000084600F089FA13E000F072FAADF81000F5
:104700009DF8110058B9FFE700F078FA0138C0B2FF
:1047100000F08CFA0020012100F076FAFFE7FFE7B5
:1047200000F06CFAFFF7DCFE2CE000F0E3F9022861
:1047300027D1FFE700F054FAADF80C009DF80D000A
:1047400028B9FFE70020012100F05EFA14E000F034
:1047500047FAADF808009DF8090001280BD1FFE7E2
:1047600000F04CFA0130C0B200F060FA00210846B7
:1047700000F04AFAFFE7FFE700F040FAFFF7B0FE6B
:10478000FFE7FFE700F0B6F9102804D1FFE70820A3
:1047900000F032F800E09CE706B080BD40F2303116
:1047A000C2F20001082008707047000080B5FFF7D2
:1047B0001BFB00210846FFF79BFB45F29650C0F615
:1047C00000000E21FFF750FC40F60040C4F202004A
:1047D0004FF400410122FCF731FBFFE700F08AF9BA
:1047E000102807D1FFE7082000F006F8002000F0AD
:1047F0008FF900E0F2E780BD81B08DF803009DF8ED
:10480000030040F23031C2F20001087001B070477D
:1048100080B590B08DF83F0000208DF83C000E90E0
:104820008DF8370000F0EAF90146069120B1FFE764
:104830000698012845D0C3E0FFF7D6FA00F0D0F97A
:10484000ADF830009DF83100039000F0C9F9014641
:104850000398ADF82C109DF82C10FFF749FB3E2073
:10486000ADF834000DA8049001210591FFF7FCFB81
:1048700005990020FFF73CFB45F20160C0F60000FF
:104880000C21FFF7F1FB05990846FFF731FB45F2D4
:10489000AE50C0F600000F21FFF7E6FB0598D921C6
:1048A000ADF834100E21FFF723FB04980599FFF7AC
:1048B000DBFB04980599DA22ADF83420FFF7D4FB2E
:1048C0007EE000F017F9042817D1FFE73420C4F286
:1048D0000100006888B1FFE700F082F9ADF8280018
:1048E0009DF82900012808D1FFE73421C4F2010115
:1048F0000868A0F5807008601FE000F0FBF8082849
:104900001AD1FFE73420C4F2010001680020B0EBA7
:10491000912F11D1FFE700F063F9ADF824009DF865
:104920002500012808D1FFE73421C4F201010868FD
:1049300000F580700860FFE7FFE7FFF755FA00F029
:104940004FF9ADF820009DF82100009000F048F9E3
:1049500001460098ADF81C109DF81C10FFF7C8FA2E
:104960003E20ADF834000DA801210191FFF77CFB3A
:1049700001990020FFF7BCFA45F21260C0F6000072
:104980000C21FFF771FB01980321FFF7B1FA3420E6
:10499000C4F201000068ADF83400BDF8342045F2DF
:1049A0008551C0F600010EA8029000F04BF9029864
:1049B000FBF749FC01460298C9B2FFF755FBFFE738
:1049C00010B080BD80B586B00020019000F02EF9B7
:1049D000FFF70AFA01990846FFF78AFA00F00EF984
:1049E000FFF716FF40F60040C4F202004FF400410A
:1049F0000122FCF723FAFFE700F07CF8012827D119
:104A0000FFE700F0EDF8ADF814009DF8150001285F
:104A100005D1FFE70021084600F0F6F813E000F0AA
:104A2000DFF8ADF810009DF8110058B9FFE700F06D
:104A3000E5F80138C0B200F0F9F80020012100F0DB
:104A4000E3F8FFE7FFE700F0D9F8FFF7E1FE42E007
:104A500000F050F8022827D1FFE700F0C1F8ADF8C8
:104A60000C009DF80D0028B9FFE70020012100F09F
:104A7000CBF814E000F0B4F8ADF808009DF8090098
:104A800001280BD1FFE700F0B9F80130C0B200F007
:104A9000CDF80021084600F0B7F8FFE7FFE700F087
:104AA000ADF8FFF7B5FE15E000F024F8042805D1B5
:104AB000FFE700F0A3F8FFF7ABFE0AE000F01AF8FA
:104AC000082805D1FFE700F099F8FFF7A1FEFFE7FE
:104AD000FFE7FFE7FFE700F00DF8102807D1FFE739
:104AE0000820FFF789FE002000F012F800E083E7BD
:104AF00006B080BD40F23230C2F20000008870473C
:104B000040F23231C2F200010020088070470000FC
:104B100081B0ADF80200BDF8020040F23231C2F2BD
:104B20000001088001B0704781B0ADF80200FFE7D6
:104B3000BDF8020040F28411C2F200010A68D0629E
:104B4000BDF80200C860FFE740F28410C2F2000026
:104B500002680021516202686FF001011161016871
:104B6000086840F001000860FFE740F28410C2F2DC
:104B7000000000680069C00708B9FFE7F5E701B069
:104B80007047000080B540F23820C2F20000FDF707
:104B9000BDF900F01DF880BD80B540F2D000C2F232
:104BA0000000FDF7B3F900F013F880BD44F2244192
:104BB000C4F20101086800200860704744F2004117
:104BC000C4F20101086840F001000860704700006D
:104BD00044F20041C4F201010868002008607047F7
:104BE00081B040F23430C2F20000B0F80100ADF8FC
:104BF0000000BDF8000001B07047000040F2343002
:104C0000C2F200000078704781B08DF803008DF883
:104C100002109DF8030040F23431C2F200014870E6
:104C20009DF80200887001B07047000081B08DF8D7
:104C300003009DF8030040F23431C2F20001087015
:104C400001B070470FB4084B10B504A902AA03982D
:104C500000F0DEF8044602A9002000F070FC2046B7
:104C600010BC5DF814FB00003F55000802E008C8C6
:104C7000121F08C1002AFAD170477047002001E0D6
:104C800001C1121F002AFBD1704700002DE9FF5F10
:104C900082B00021DDE90430020DDDF840B00343AD
:104CA00018D044F61050A2F2FF3242431514119866
:104CB00001281FD0A5EB0B00401C5FEA000A4FF053
:104CC00000064E4FDFF83891B046504615D5CAF170
:104CD000000413E0119801244AA3012801D16FEACE
:104CE0000B010298119AC0E90031C0E9024206B0F6
:104CF000BDE8F09FCBF10000DFE704460021404A09
:104D0000491842EB0450CDE9001012E0E00707D04B
:104D100032463B4640464946FBF778FB804689468B
:104D200032463B4610461946FBF770FB06460F46D7
:104D30006410002CEAD1DDE90401DDE90023BAF1B9
:104D4000000F06DAFBF762FB42464B46FBF75EFBC1
:104D500005E0FBF7CDFB42464B46FBF7C9FB04469B
:104D60000E460022284BFBF74BFC03D84FF0FF30D8
:104D7000014607E00022254B20463146FBF79FFA0B
:104D8000FBF725FC102409E0002C0ADB0A22002393
:104D9000FBF716FA039B30321A55641E50EA0102E3
:104DA000F2D1641C039AC4F111031444119A012A2C
:104DB00003D0012208430DD10AE0084304D00020AB
:104DC0004FF0110B119072E7A3EB0B056D1E0DE078
:104DD0005B4504DD4FF0000205F1010504E003DA54
:104DE0004FF00002A5F10105002AECD002981199BC
:104DF000C0E90231C0E9004579E700000000144035
:104E00000000F03F300000000000F0430000E03FF1
:104E10002DE9FF4F95B09B468946064600250FE2D7
:104E2000252877D100242746F84A0121059400E07F
:104E3000044316F8013F203B01FA03F01042F7D17A
:104E400030782A2811D06FF02F033078A0F130028B
:104E5000092A16D8059A44F0020402EB820203EBF9
:104E600042021044761C0590EFE759F8042B059296
:104E7000002A03DA504244F40054059044F002043E
:104E8000761C30782E2816D116F8010F44F0040451
:104E90002A280DD06FF02F023078A0F13003092BB3
:104EA00009D807EB870302EB4303C718761CF3E727
:104EB00059F8047B761C30786C280FD006DC4C281F
:104EC00017D068280DD06A2814D104E0742810D0B7
:104ED0007A280FD10DE044F400140AE044F4801461
:104EE00001E044F440147278824202D104F5801447
:104EF000761C761C307866280BD013DC582877D0C7
:104F000009DC002875D04528F6D04628F4D047287B
:104F10001AD19DE118E0632835D0642879D065283E
:104F200012D195E1702873D008DC6728F1D0692888
:104F30006FD06E280DD06F2806D1B5E073282CD025
:104F4000752875D0782874D05A46179990476D1CEB
:104F500075E1C4F30250022809D003280DD0D9F816
:104F6000001004280DD00D6009F1040967E1D9F89B
:104F70000010EA17C1E90052F6E7D9F800100D80D9
:104F8000F2E70D70F0E719F8041B8DF8001000200F
:104F90008DF80100EA46012003E059F804AB4FF018
:104FA000FF3061074FF0000102D40DE008F101016C
:104FB0008846B9420FDA8045F8DB1AF80810002954
:104FC000F4D108E008F1010188468142FADB1AF8C1
:104FD00008100029F6D105985B46A0EB080721468A
:104FE0003846179A00F094FA284400EB080507E0C9
:104FF0004DE029E10DE01AF8010B5A461799904748
:10500000B8F10108F7D25B4621463846179A13E1FA
:1050100042E00A220092C4F302524FF0000A022A30
:1050200008D059F804CB032A4FEAEC710AD00DE0FE
:1050300029E02AE009F1070121F00702F2E802C1A4
:10504000914609E00FFA8CFC4FEAEC71042A03D177
:105050004FFA8CFC4FEAEC71002907DA0A4600216E
:10506000DCF1000C61EB02012D2202E0220504D5E7
:105070002B228DF80420012203E0E20701D0202238
:10508000F7E7904659E00A2102E010220DE01021D6
:105090004FF0000A00910BE010224FF0000A44F09C
:1050A00004040827009203E008224FF0000A00924F
:1050B000C4F30252022A05D059F804CB0021032A76
:1050C00008D009E009F1070121F00702F2E802C166
:1050D000914605E01FFA8CFC042A01D10CF0FF0C6C
:1050E0004FF00008220728D5702806D0009B83F0D7
:1050F000100353EA0A0305D00EE040228DF8042085
:10510000012208E05CEA010206D030228DF804207A
:105110008DF8050002229046009B83F0080353EAB5
:105120000A030AD15CEA010201D1620705D53022E7
:105130008DF804204FF001087F1E582804D034A0B9
:1051400003900EA802900DE036A0F9E753466046A2
:10515000009AFBF735F884460398825C0298401E5B
:10516000029002705CEA0100F0D1029806A9081AC8
:1051700000F1200A600702D524F4803400E0012702
:10518000574502DDA7EB0A0000E0002000EB0A0112
:10519000009005984144401A0590E00306D45B4610
:1051A0002146179A059800F0B3F90544002706E058
:1051B00001A85A46C05D179990476D1C7F1C474552
:1051C000F6DBE0030CD55B462146179A059800F004
:1051D0009FF9054404E030205A46179990476D1C0A
:1051E0000099481E00900029F5DC08E00298029919
:1051F0005A460078491C0291179990476D1CBAF1E4
:105200000001AAF1010AF1DC65E1000009280100B2
:10521000303132333435363738396162636465662C
:1052200000000000303132333435363738394142EE
:10523000434445460000000000F058F90544761C40
:10524000307800287FF4ECAD19B02846BDE8F08F27
:10525000620700D4062709F1070222F0070CFCE8D8
:105260000223E14603F000485FEA080C02D00FF287
:10527000702C0DE05FEA045C02D50FF2682C07E0A9
:105280005FEAC47C02D00FF2602C01E0AFF2700C38
:105290004FF0FF3823F00043CDF850C065280CD004
:1052A00006DC452809D046281DD047283DD13DE0E1
:1052B000662818D067287ED138E00021112F01DB45
:1052C000112000E0781CCDE9000106A90EA8FFF727
:1052D000DDFCDDE90F010E9A03910021009207F138
:1052E000010A04914DE04FF000400097CDE9011014
:1052F00006A90EA8FFF7CAFCDDE90F0203920E9B78
:1053000011990022DDF80CA00093049211B9791CC8
:1053100000EB010AB7EB0A0004D4C0F1FF3007F13B
:10532000010A0490AAEB0700019044E0012F00DA83
:1053300001270021112F01DD112000E03846CDE9C1
:10534000000106A90EA8FFF7A1FCDDE90F010E9AE6
:105350000391002104910092BA4621070CD40399CD
:10536000514500DA8A46BAF1010F05DD009AAAF12B
:105370000101515C302908D0B84202DA10F1040F63
:1053800006DA0121CDE9011015E0AAF10101E9E7F2
:10539000002805DC049901440491AAEB000102E015
:1053A000411C514500DD8A460499401A401C019079
:1053B0004FF000400290200704D40198504501DBD3
:1053C000CDF8048000208DF84F0002980DF14F07B2
:1053D000B0F1004F25D02B200E9002984FF002081C
:1053E00000280CDA404202902D200E9007E00A219E
:1053F0000298FAF72FFF3031029007F8011DB8F13B
:105400000001A8F10108F2DC02980028EFD1791E12
:105410000E980870307800F0200040F0450007F842
:10542000020D12A8C01B00F107081498007800B103
:10543000012000EB0A01019801EBE071059841445D
:10544000401A401E0590E00306D45B462146179A99
:10545000059800F05DF805441498007818B15A4694
:10546000179990476D1CE00324D55B462146179A97
:10547000059800F04DF805441CE00498002807DB6F
:10548000DDE90301884203DD0098405C179901E0E3
:10549000179930205A469047049805F10105401CA1
:1054A00004900198401E019004D12E205A4617996D
:1054B00090476D1CBAF10001AAF1010ADDDC05E09C
:1054C00017F8010B5A46179990476D1CB8F1000167
:1054D000A8F10108F4DC5B462146179A0598ABE673
:1054E0002D0000002B000000200000002DE9F041FD
:1054F000044600251E461746880404D405E03946B4
:105500002020B0476D1C641EF9D52846BDE8F08107
:105510002DE9F041044600251E469046C80301D5FA
:10552000302700E02027880404D505E041463846AE
:10553000B0476D1C641EF9D52846BDE8F0810A68A5
:10554000531C0B601070704700000000000000004A
:105550000102030406070809000000000102030419
:1055600043686F6F7365206D6F64653A00536176B1
:10557000656420646174610043757272656E7420A5
:10558000646174610025690048756D0048656C7040
:105590000054656D70006D656E73686520646567A5
:1055A000726565730053657474696E677300546F38
:1055B000206D6F7665207072657373202000496ED0
:1055C0002063686F696365206D6F64653A00202011
:1055D0002048454C50204D454E5500546F20636F78
:1055E0006E6669726D00204D6F64652073656C6531
:1055F0006374005072657373206D6964206B657904
:105600000020202053455454494E4753204D454EC9
:10561000550020204272696768746E6573730000DC
:105620004056000800000020100000006C4C0008EC
:105630005056000810000020300700007C4C000885
:105640000024F40001000000100000000000000031
:040000050800018965
:00000001FF
