:020000040800F2
:10000000380500209D010008D126000815220008AF
:10001000CD260008A90200082131000800000000D8
:10002000000000000000000000000000452700085C
:10003000AD02000800000000412700089D270008CD
:10004000B7010008B7010008B7010008B7010008B0
:10005000B7010008B7010008B7010008B7010008A0
:10006000B7010008B7010008B7010008B701000890
:10007000B7010008B7010008B7010008B701000880
:10008000B7010008B7010008B7010008B701000870
:10009000B7010008B7010008B7010008C502000851
:1000A000B701000859280008B7010008B701000887
:1000B000B7010008B7010008B7010008B701000840
:1000C000B7010008B7010008B7010008B701000830
:1000D000B7010008B7010008B7010008B701000820
:1000E000B1020008B7010008B7010008B701000815
:1000F000B7010008B7010008B7010008B701000800
:10010000B7010008B7010008B7010008B7010008EF
:10011000B7010008B7010008B7010008B7010008DF
:10012000B7010008B7010008B7010008B7010008CF
:10013000B7010008B7010008B7010008B7010008BF
:10014000B7010008B7010008B7010008B7010008AF
:10015000B7010008B7010008B7010008B70100089F
:10016000B7010008B7010008B7010008B70100088F
:10017000B7010008B7010008B7010008000000003F
:10018000B7010008B7010008DFF80CD000F07AF8DA
:1001900000480047A1340008380500200648804781
:1001A00006480047FEE7FEE7FEE7FEE7FEE7FEE75C
:1001B000FEE7FEE7FEE7FEE74528000889010008A4
:1001C0002DE9F05F0546002092469B46884606468C
:1001D000814640241BE0284641464746224600F01F
:1001E00041F853465A46C01A914110D31146184659
:1001F000224600F028F82D1A67EB01084F462246E8
:100200000120002100F01FF817EB00094E41201ECD
:10021000A4F10104DFDC484631462A464346BDE8E6
:10022000F09FD2B201E000F8012B491EFBD27047CB
:100230000022F6E710B513460A4604461946FFF7B2
:10024000F0FF204610BD202A04DB203A00FA02F11C
:10025000002070479140C2F1200320FA03F31943B4
:1002600090407047202A04DB203A21FA02F0002156
:10027000704721FA02F3D040C2F1200291400843B6
:1002800019467047064C074D06E0E06840F0010350
:1002900094E8070098471034AC42F6D3FFF778FF94
:1002A000603E0008803E0008FFE7FEE77047000060
:1002B00080B54FF4006000F0FBF84FF4004000F010
:1002C000F7F880BD80B5402000F0F2F84FF4807060
:1002D00000F0EEF84FF4007000F0EAF880BD000086
:1002E00081B0EFF3108072B60090FFE7FEE70000E8
:1002F00080B584B0039000F0EBFA0290039801906F
:100300000198013048B1FFE740F20400C2F200005A
:100310000178019808440190FFE7FFE700F0D8FA60
:100320000299401A0199884201D2FFE7F6E704B02A
:1003300080BD000080B58CB0ADF82E00BDF82E0059
:1003400040281BD1FFE740F60040C4F202000990AC
:100350004FF400410A91012200F0A2FA03F092FC4E
:1003600040F0010003F09CFC4FF47A6003F0A4FC21
:1003700009980A99002200F093FA87E0BDF82E0050
:10038000B0F5807F1BD1FFE740F60040C4F20200C9
:1003900007904FF400410891012200F081FA03F028
:1003A00071FC40F0020003F07BFC4FF47A6003F034
:1003B00083FC07980899002200F072FA65E0BDF806
:1003C0002E00B0F5004F1BD1FFE740F60040C4F20D
:1003D000020005904FF400410691012200F060FAFE
:1003E00003F050FC40F0100003F05AFC4FF47A6028
:1003F00003F062FC05980699002200F051FA43E0F0
:10040000BDF82E00B0F5007F1BD1FFE740F600409D
:10041000C4F2020003904FF400410491012200F065
:100420003FFA03F02FFC40F0040003F039FC4FF4D6
:100430007A6003F041FC03980499002200F030FA3E
:1004400021E0BDF82E00B0F5006F1BD1FFE740F6AC
:100450000040C4F2020001904FF4004102910122D9
:1004600000F01EFA03F00EFC40F0080003F018FC48
:100470004FF47A6003F020FC01980299002200F00A
:100480000FFAFFE7FFE7FFE7FFE7FFE744F224414A
:10049000C4F2010108680020086044F20041C4F27F
:1004A0000101086840F0010008600CB080BD000048
:1004B00080B582B0ADF8060043F61440C4F20100E6
:1004C0000068BDF8061008420CD0FFE7BDF8060032
:1004D00043F61441C4F201010860BDF80600FFF7BD
:1004E00029FFFFE702B080BD8EB00D900C91002077
:1004F0000A90099008900B90FFE70B980F2800F2E4
:10050000CC81FFE70B99012088400A900C98006885
:100510000A990840099009980A99884240F0B881E0
:10052000FFE70C98406800F00300012807D0FFE7C0
:100530000C98406800F0030002282FD1FFE70D98C7
:10054000806808900B984100032000FA01F1089898
:10055000884308900C98C0680B99490000FA01F193
:1005600008980843089008980D9988600D9840688D
:1005700008900B99012000FA01F10898884308902F
:100580000C984068C0F300100B9900FA01F108982C
:100590000843089008980D994860FFE70C98406858
:1005A00000F00300032818D0FFE70D98C0680890FA
:1005B0000B984100032000FA01F108988843089045
:1005C0000C9880680B99490000FA01F108980843DB
:1005D000089008980D99C860FFE70C98406800F0F3
:1005E0000300022826D1FFE70D980B996FF0030254
:1005F00002EA51010844006A08900B9800F00700D5
:1006000081000F2000FA01F10898884308900C98A7
:1006100000690B9901F00701890000FA01F10898BF
:100620000843089008980D990B9B02EA5302114465
:100630000862FFE70D98006808900B9841000320BE
:1006400000FA01F10898884308900C98406800F07F
:1006500003000B99490000FA01F10898084308903B
:1006600008980D9908600C9880798007002800F0A0
:100670000E81FFE7FFE70020079043F64400C4F235
:100680000200016841F480410160006800F480408C
:1006900007900798FFE70B9820F0030043F6080146
:1006A000C4F20101405808900B9800F0030081004B
:1006B0000F2000FA01F10898884308900D98002156
:1006C000C4F20201884203D1FFE7002006905EE0F9
:1006D0000D9840F20041C4F20201884203D1FFE7C5
:1006E0000120059050E00D9840F60001C4F202018F
:1006F000884203D1FFE70220049042E00D9840F6C3
:100700000041C4F20201884203D1FFE703200390B5
:1007100034E00D9841F20001C4F20201884203D195
:10072000FFE70420029026E00D9841F20041C4F258
:100730000201884203D1FFE70520019018E00D98DF
:1007400041F60001C4F20201884203D1FFE706200E
:1007500000900AE00D9941F60042C4F2020208201E
:10076000914208BF07200090FFE700980190FFE743
:1007700001980290FFE702980390FFE70398049026
:10078000FFE704980590FFE705980690FFE70698B5
:10079000C0B20B9901F00301890000FA01F1089839
:1007A0000843089008980B9921F0030143F60802CA
:1007B000C4F20102885043F60840C4F20100006808
:1007C000089009990898884308900C988079C00689
:1007D000002805D5FFE70999089808430890FFE726
:1007E000089843F60841C4F20101086043F60C4042
:1007F000C4F201000068089009990898884308909D
:100800000C9880798006002805D5FFE7099908989B
:1008100008430890FFE7089843F60C41C4F2010131
:10082000086043F60440C4F201000068089009998A
:100830000898884308900C9880798007002805D58F
:10084000FFE70999089808430890FFE7089843F6DE
:100850000441C4F20101086043F60040C4F2010003
:100860000068089009990898884308900C98807946
:10087000C00728B1FFE70999089808430890FFE7E7
:10088000089843F60041C4F201010860FFE7FFE762
:10089000FFE70B9801300B902FE60EB07047000079
:1008A00082B00190ADF802108DF801209DF8010092
:1008B00028B1FFE7BDF802000199886105E0BDF8A5
:1008C0000200000401998861FFE702B07047000050
:1008D00040F23410C2F200000068704740F2040099
:1008E000C2F20000027840F23411C2F2000108683E
:1008F000104408607047000080B543F60041C4F220
:100900000201086840F400700860086840F48060E4
:100910000860086840F480700860032000F08AF8DE
:100920000F2000F005F800F03BF8002080BD00002B
:1009300080B582B0009040F20000C2F20000006872
:1009400040F20401C2F200010A784FF47A71B1FB5F
:10095000F2F1B0FBF1F000F0A5FD20B1FFE70120BE
:100960008DF8070018E000980F280DD8FFE70099D0
:100970004FF0FF30002200F043F8009840F20801E9
:10098000C2F20001086003E001208DF8070003E0D7
:1009900000208DF80700FFE79DF8070002B080BD3A
:1009A00082B0FFE70020019043F64400C4F2020049
:1009B000016841F480410160006800F480400190CA
:1009C0000198FFE7FFE70020009043F64000C4F2E3
:1009D0000200016841F080510160006800F0805021
:1009E00000900098FFE702B07047000080B582B029
:1009F0008DF807009DF9070002F094FB02B080BD5E
:100A000080B586B08DF81700049103920020029003
:100A100002F0A0FB02909DF9170001900298049942
:100A2000039A01F057FE0146019802F09BFB06B0C5
:100A300080BD000080B582B00190019802F0B4FB47
:100A400002B080BD80B584B002900191029820B9B7
:100A5000FFE701208DF80F0021E1019843F60041E6
:100A6000C4F20201096801F00701884212D9FFE7C8
:100A7000019943F60040C4F202000170006800F0E2
:100A800007000199884204D0FFE701208DF80F008C
:100A900005E1FFE702980078800700282AD5FFE7E4
:100AA000029800784007002809D5FFE743F60801BF
:100AB000C4F20201086840F4E0500860FFE70298C1
:100AC00000780007002809D5FFE743F60801C4F2C3
:100AD0000201086840F460400860FFE743F608013F
:100AE000C4F20201086820F0F000029A92681043F4
:100AF0000860FFE702980078C00700286ED0FFE783
:100B000002984068012811D1FFE743F60000C4F2C3
:100B10000200006800F400310020B0EB514F04D116
:100B2000FFE701208DF80F00B9E02CE00298406843
:100B3000022805D0FFE702984068032811D1FFE79B
:100B400043F60000C4F20200006800F000710020CB
:100B5000B0EB516F04D1FFE701208DF80F009EE04C
:100B600010E043F60000C4F20200006800F0020149
:100B70000020B0EB510F04D1FFE701208DF80F00EA
:100B80008DE0FFE7FFE743F60801C4F202010868C1
:100B900020F00300029A526810430860FFF798FEA5
:100BA0000090FFE743F60800C4F20200006800F07E
:100BB0000C0002994968B0EB810F0ED0FFE7FFF7F8
:100BC00087FE0099401A41F28931884204D3FFE739
:100BD00003208DF80F0062E0E4E7FFE7019843F699
:100BE0000041C4F20201096801F00701884212D2F3
:100BF000FFE7019943F60040C4F20200017000686B
:100C000000F007000199884204D0FFE701208DF829
:100C10000F0044E0FFE702980078400700280CD559
:100C2000FFE743F60801C4F20201086820F4E0502F
:100C3000029AD26810430860FFE702980078000724
:100C400000280DD5FFE743F60801C4F20201086849
:100C500020F46040029A126940EAC2000860FFE78F
:100C600000F04CF843F60801C4F202010968C9B269
:100C70000A0943F69651C0F60001895CC84040F26B
:100C80000001C2F20001086040F20800C2F2000058
:100C90000068FFF74DFE00208DF80F00FFE79DF87C
:100CA0000F0004B080BD000040F20000C2F200005E
:100CB0000068704780B5FFF7F7FF43F60801C4F2FC
:100CC00002010968C1F3822243F6A651C0F6000171
:100CD000895CC84080BD000080B5FFF7E5FF43F6A2
:100CE0000801C4F20201096889B24A0B43F6A65111
:100CF000C0F60001895CC84080BD000080B586B0A8
:100D00000020059004900390029043F60800C4F27E
:100D10000200006800F00C000146019140B1FFE7BD
:100D2000019804280AD0FFE7019808280CD04FE06A
:100D300042F20040C0F2F40002904FE047F640005B
:100D4000C0F27D10029049E043F60400C4F20200B4
:100D5000016801F03F01059100684002002813D5A9
:100D6000FFE743F60400C4F202000068C0F38810F5
:100D700047F64001C0F27D11A0FB0101059A002356
:100D8000FFF71EFA049012E043F60400C4F20200DA
:100D90000068C0F3881042F20041C0F2F401A0FBE9
:100DA0000101059A0023FFF70BFA0490FFE743F6D1
:100DB0000400C4F20200006800F44031022000EB9D
:100DC000D130039004980399B0FBF1F0029005E054
:100DD00042F20040C0F2F4000290FFE7029806B031
:100DE00080BD000080B586B00490049820B9FFE76C
:100DF00001208DF8170050E304980078C007002800
:100E000000F0A580FFE743F60800C4F20200006886
:100E100000F00C00042813D0FFE743F60800C4F2EA
:100E20000200006800F00C0008281ED1FFE743F61E
:100E30000400C4F2020000684002002815D5FFE754
:100E400043F60000C4F20200006800F40031002004
:100E5000B0EB514F08D0FFE70498406820B9FFE796
:100E600001208DF8170018E370E0FFE70498406850
:100E7000B0F5803F09D1FFE743F60001C4F202015B
:100E8000086840F48030086020E004984068B0F5BD
:100E9000A02F0DD1FFE743F60001C4F2020108685C
:100EA00040F480200860086840F4803008600CE05E
:100EB00043F60001C4F20201086820F480300860A3
:100EC000086820F480200860FFE7FFE7FFE7049848
:100ED0004068E8B1FFE7FFF7FBFC0390FFE743F64C
:100EE0000000C4F20200006800F400310020B0EB02
:100EF000514F0CD1FFE7FFF7EBFC0399401A65282F
:100F000004D3FFE703208DF81700C6E2E7E71CE0F3
:100F1000FFF7DEFC0390FFE743F60000C4F2020097
:100F2000006800F400310020B0EB514F0CD0FFE717
:100F3000FFF7CEFC0399401A652804D3FFE703208E
:100F40008DF81700A9E2E7E7FFE7FFE7FFE704985E
:100F500000788007002840F19680FFE743F60800FC
:100F6000C4F20200006810F00C0F13D0FFE743F644
:100F70000800C4F20200006800F00C0008282CD120
:100F8000FFE743F60400C4F20200006840020028B4
:100F900023D4FFE743F60000C4F20200006800F02B
:100FA00002010020B0EB510F09D0FFE70498C068A0
:100FB000012804D0FFE701208DF817006DE243F609
:100FC0000001C4F20201086820F0F800049A1269D6
:100FD00040EAC2000860FFE754E00498C06870B3BC
:100FE000FFE70021C4F2472101200860FFF770FCF1
:100FF0000390FFE743F60000C4F20200006800F02F
:1010000002010020B0EB510F0CD1FFE7FFF760FCAD
:101010000399401A032804D3FFE703208DF8170033
:101020003BE2E7E743F60001C4F20201086820F062
:10103000F800049A126940EAC200086021E0002129
:10104000C4F2472100200860FFF742FC0390FFE74D
:1010500043F60000C4F20200006800F00201002024
:10106000B0EB510F0CD0FFE7FFF732FC0399401AA9
:10107000032804D3FFE703208DF817000DE2E7E70C
:10108000FFE7FFE7FFE704980078000700284BD54B
:10109000FFE70498406918B3FFE740F68061C4F2A7
:1010A000472101200860FFF713FC0390FFE743F698
:1010B0007400C4F20200006800F002010020B0EBEE
:1010C000510F0CD1FFE7FFF703FC0399401A0328E7
:1010D00004D3FFE703208DF81700DEE1E7E722E005
:1010E00040F68061C4F2472100200860FFF7F0FB62
:1010F0000390FFE743F67400C4F20200006800F0BA
:1011000002010020B0EB510F0CD0FFE7FFF7E0FB2E
:101110000399401A032804D3FFE703208DF8170032
:10112000BBE1E7E7FFE7FFE7049800784007002806
:1011300040F1CE80FFE700208DF8070043F6400025
:10114000C4F202000068C000002815D4FFE7FFE7E2
:101150000020009043F64000C4F20200016841F014
:1011600080510160006800F0805000900098FFE717
:1011700001208DF80700FFE747F20000C4F20000ED
:101180000068C005002822D4FFE747F20001C4F23E
:101190000001086840F480700860FFF799FB039035
:1011A000FFE747F20000C4F200000068C005002815
:1011B0000CD4FFE7FFF78CFB0399401A032804D3F4
:1011C000FFE703208DF8170067E1EAE7FFE7FFE795
:1011D00004988068012809D1FFE743F67001C4F242
:1011E0000201086840F0010008601FE00498806870
:1011F00005280DD1FFE743F67001C4F2020108682B
:1012000040F004000860086840F0010008600CE04D
:1012100043F67001C4F20201086820F00100086082
:10122000086820F004000860FFE7FFE7FFE7049884
:101230008068F8B1FFE7FFF74BFB0390FFE743F649
:101240007000C4F20200006800F002010020B0EB60
:10125000510F0ED1FFE7FFF73BFB0399401A41F214
:101260008931884204D3FFE703208DF8170014E189
:10127000E5E71EE0FFF72CFB0390FFE743F6700065
:10128000C4F20200006800F002010020B0EB510F30
:101290000ED0FFE7FFF71CFB0399401A41F289319A
:1012A000884204D3FFE703208DF81700F5E0E5E757
:1012B000FFE79DF80700012809D1FFE743F6400149
:1012C000C4F20201086820F080500860FFE7FFE7E1
:1012D00004988069002800F0DC80FFE743F60800EE
:1012E000C4F20200006800F00C00082800F08580BD
:1012F000FFE70498806902285CD1FFE76021C4F20F
:10130000472100200860FFF7E3FA0390FFE743F668
:101310000000C4F20200006800F000710020B0EB91
:10132000516F0CD0FFE7FFF7D3FA0399401A032857
:1013300004D3FFE703208DF81700AEE0E7E7049938
:10134000C869D1F820C04B6A8A6A40EA0C0040EABA
:101350008310D2034FF6FF739A43A2F580321043F5
:10136000C96A40EA016043F60401C4F20201086060
:101370006021C4F2472101200860FFF7A9FA039019
:10138000FFE743F60000C4F20200006800F00071BD
:101390000020B0EB516F0CD1FFE7FFF799FA0399EA
:1013A000401A032804D3FFE703208DF8170074E0E8
:1013B000E7E721E06021C4F2472100200860FFF741
:1013C00087FA0390FFE743F60000C4F202000068CA
:1013D00000F000710020B0EB516F0CD0FFE7FFF779
:1013E00077FA0399401A032804D3FFE703208DF806
:1013F000170052E0E7E7FFE74AE004988069012818
:1014000004D1FFE701208DF8170046E043F6040001
:10141000C4F202000068029004988069012831D06B
:10142000FFE7029800F480000499C969884229D135
:10143000FFE7029800F03F000499096A884221D131
:10144000FFE7029847F6C07108400499496AB0EB7B
:10145000811F17D1FFE7029800F440300499896A90
:10146000C9034FF6FF729143A1F58031884209D13B
:10147000FFE7029800F070600499C96AB0EB016F51
:1014800004D0FFE701208DF8170006E0FFE7FFE733
:10149000FFE700208DF81700FFE79DF8170006B062
:1014A00080BD000080B582B00190019801F04CF938
:1014B00002B080BD81B0009001B0704781B0009053
:1014C00001B0704784B00290019100200090FFE7C6
:1014D000029890F83C00012804D1FFE702208DF823
:1014E0000F0044E00299012081F83C00FFE7FFE78C
:1014F000009820F0FF000199C96808430090009807
:1015000020F440700199896808430090009820F405
:1015100080600199496808430090009820F40060B9
:101520000199096808430090009820F480500199BF
:10153000096908430090009820F400500199496916
:1015400008430090009820F480400199C96908433D
:1015500000900098029909684864FFE7029900200A
:1015600081F83C00FFE700208DF80F00FFE79DF8B1
:101570000F0004B07047000085B003900291FFE7B0
:10158000039890F83C00012804D1FFE702208DF871
:1015900013007EE00399012081F83C00FFE7FFE79C
:1015A0000399022081F83D0003980068406801908B
:1015B0000398006880680090019820F07000019006
:1015C00002980168019808430190019803990968FD
:1015D0004860039800680021C4F2010188423CD0B1
:1015E000FFE703980068B0F1804F36D0FFE703981B
:1015F000006840F20041C4F2000188422DD0FFE7AC
:101600000398006840F60001C4F20001884224D02B
:10161000FFE70398006840F60041C4F200018842E9
:101620001BD0FFE70398006840F20041C4F20101BB
:10163000884212D0FFE70398006844F20001C4F228
:101640000101884209D0FFE70398006841F60001D4
:10165000C4F2000188420ED1FFE7009820F080001C
:101660000090029841680098084300900098039900
:1016700009688860FFE70399012081F83D00FFE7D2
:101680000399002081F83C00FFE700208DF813004B
:10169000FFE79DF8130005B07047000080B582B0E9
:1016A0000090009820B9FFE701208DF807003FE087
:1016B000009890F83D0040B9FFE70099002081F8BC
:1016C0003C00009800F038F8FFE70099022081F80C
:1016D0003D00009951F8040B01F0CCF8009901206D
:1016E00081F84600FFE70099012081F83E0000994B
:1016F00081F83F00009981F84000009981F841008D
:10170000FFE7FFE70099012081F84200009981F886
:101710004300009981F84400009981F84500FFE7F3
:101720000099012081F83D0000208DF80700FFE7B7
:101730009DF8070002B080BD80B58CB00B900020F2
:101740000A9009900890079006900B98006841F263
:101750000001C4F20001884212D1FFE7FFE7002038
:10176000059043F64000C4F20200016841F0100108
:101770000160006800F0100005900598FFE747E061
:101780000B98006844F20041C4F2010188423ED146
:10179000FFE7FFE70020049043F64400C4F2020094
:1017A000016841F400310160006800F400300490E9
:1017B0000498FFE7FFE70020039043F63000C4F2EF
:1017C0000200016841F002010160006800F00200BF
:1017D00003900398FFE74FF4807006900220079073
:1017E000002001900890099003200A9040F20040E8
:1017F000C4F2020006A9FEF777FE019A19200290B2
:101800001146FFF7FDF80298FFF7F0F8FFE7FFE752
:101810000CB080BD83B00190019890F83D00012884
:1018200004D0FFE701208DF80B006AE00199022047
:1018300081F83D0001980168C86840F00100C86067
:10184000019800680021C4F2010188423CD0FFE702
:1018500001980068B0F1804F36D0FFE7019800682A
:1018600040F20041C4F2000188422DD0FFE7019808
:10187000006840F60001C4F20001884224D0FFE76E
:101880000198006840F60041C4F2000188421BD074
:10189000FFE70198006840F20041C4F2010188426C
:1018A00012D0FFE70198006844F20001C4F2010180
:1018B000884209D0FFE70198006841F60001C4F2B0
:1018C0000001884212D1FFE701980068806800F0AB
:1018D000070000900098062807D0FFE701980168EC
:1018E000086840F001000860FFE706E00198016821
:1018F000086840F001000860FFE700208DF80B0049
:10190000FFE79DF80B0003B07047000081B0009026
:1019100001B0704780B586B0049003910292002018
:101920008DF80700FFE7049890F83C00012804D1E7
:10193000FFE702208DF8170080E00499012081F86C
:101940003C00FFE7FFE70298B0B9FFE704980068A2
:10195000039B19685A68DB6801F016FA049801685D
:10196000886920F00C0088610398826804980168F7
:1019700088691043886156E00298042817D1FFE770
:1019800004980068039B19685A68DB6801F088FABC
:1019900004980168886920F440608861039882682F
:1019A00004980168886940EA022088613AE0029858
:1019B000082816D1FFE704980068039B19685A6845
:1019C000DB6801F0A3FA04980168C86920F00C00F4
:1019D000C8610398826804980168C8691043C861A7
:1019E0001FE002980C2817D1FFE704980068039BBA
:1019F00019685A68DB6801F0BFFA04980168C86981
:101A000020F44060C8610398826804980168C8693E
:101A100040EA0220C86103E001208DF80700FFE7DB
:101A2000FFE7FFE7FFE7FFE70499002081F83C00AC
:101A3000FFE79DF807008DF81700FFE79DF81700F6
:101A400006B080BD80B582B00090009820B9FFE755
:101A500001208DF807003FE0009890F83D0040B964
:101A6000FFE70099002081F83C00009800F038F86A
:101A7000FFE70099022081F83D00009951F8040B1E
:101A800000F0F8FE0099012081F84600FFE7009978
:101A9000012081F83E00009981F83F00009981F80B
:101AA0004000009981F84100FFE7FFE7009901201D
:101AB00081F84200009981F84300009981F84400C0
:101AC000009981F84500FFE70099012081F83D0069
:101AD00000208DF80700FFE79DF8070002B080BDE9
:101AE00081B0009001B0704780B582B0019001983C
:101AF0000068006900F002010020B0EB510F28D00F
:101B0000FFE701980068C06800F002010020B0EB18
:101B1000510F1DD0FFE7019801686FF002000861C6
:101B2000019901200877019800688069800720B139
:101B3000FFE70198FFF7EAFE06E0019800F048F998
:101B4000019800F0ADFAFFE7019900200877FFE760
:101B5000FFE701980068006900F004010020B0EB85
:101B6000910F29D0FFE701980068C06800F00401D8
:101B70000020B0EB910F1ED0FFE7019801686FF0D5
:101B800004000861019902200877019800688069C3
:101B900010F4407F04D0FFE70198FFF7B7FE06E09E
:101BA000019800F015F9019800F07AFAFFE7019921
:101BB00000200877FFE7FFE701980068006900F060
:101BC00008010020B0EBD10F28D0FFE70198006892
:101BD000C06800F008010020B0EBD10F1DD0FFE776
:101BE000019801686FF008000861019904200877E6
:101BF00001980068C069800720B1FFE70198FFF7EE
:101C000085FE06E0019800F0E3F8019800F048FA3C
:101C1000FFE7019900200877FFE7FFE701980068D8
:101C2000006900F010010020B0EB111F29D0FFE780
:101C300001980068C06800F010010020B0EB111F8F
:101C40001ED0FFE7019801686FF01000086101994C
:101C50000820087701980068C06910F4407F04D01C
:101C6000FFE70198FFF752FE06E0019800F0B0F898
:101C7000019800F015FAFFE7019900200877FFE7C7
:101C8000FFE7019800680069C00780B1FFE701988D
:101C90000068C068C00748B1FFE7019801686FF0AD
:101CA00001000861019800F0FFF9FFE7FFE70198E4
:101CB00000680069C1B20020B0EBD11F13D0FFE76C
:101CC00001980068C068C1B20020B0EBD11F09D0F4
:101CD000FFE7019801686FF0800008610198FFF745
:101CE000E9FBFFE7FFE701980068006900F04001A9
:101CF0000020B0EB911F14D0FFE701980068C06886
:101D000000F040010020B0EB911F09D0FFE70198DF
:101D100001686FF040000861019800F0E3F9FFE707
:101D2000FFE701980068006900F020010020B0EB97
:101D3000511F14D0FFE701980068C06800F020012F
:101D40000020B0EB511F09D0FFE7019801686FF048
:101D5000200008610198FFF7B1FBFFE7FFE702B041
:101D600080BD000080B588B00790002006900590E7
:101D7000049003900290079800680021C4F20101CA
:101D8000884223D1FFE7FFE70020019043F63000AF
:101D9000C4F20200016841F010010160006800F027
:101DA000100001900198FFE74FF4007002900220AC
:101DB00003900020049005900120069041F200005D
:101DC000C4F2020002A9FEF78FFBFFE708B080BD56
:101DD00081B0009001B0704780B584B0029001914D
:101DE000029820B9FFE701208DF80F0038E0029833
:101DF00090F83D0040B9FFE70299002081F83C00CF
:101E0000029800F031F8FFE70299022081F83D00C6
:101E1000029951F8040B00F02DFD02980168086842
:101E200020F008000860019A0298016808681043D1
:101E300008600299012081F84600029981F83E006D
:101E4000029981F83F00029981F84200029981F8D5
:101E50004300029981F83D0000208DF80F00FFE754
:101E60009DF80F0004B080BD81B0009001B07047B4
:101E700080B586B004900391029200208DF807008F
:101E8000FFE7049890F83C00012804D1FFE7022006
:101E90008DF8170089E00499012081F83C00FFE7E4
:101EA000FFE7029800900C2800F270800099DFE8AC
:101EB00001F0076D6D6D206D6D6D3A6D6D6D5300A8
:101EC00004980068039900F0A3FD049801688869EC
:101ED00040F00800886104980168886920F00400D7
:101EE00088610398026904980168886910438861D1
:101EF00050E004980068039900F000FE049801681F
:101F0000886940F40060886104980168886920F459
:101F1000806088610398026904980168886940EAD2
:101F20000220886136E004980068039900F060FEA2
:101F300004980168C86940F00800C8610498016805
:101F4000C86920F00400C861039802690498016818
:101F5000C8691043C8611DE004980068039900F047
:101F6000C1FE04980168C86940F40060C861049823
:101F70000168C86920F48060C86103980269049808
:101F80000168C86940EA0220C86103E001208DF8B9
:101F90000700FFE7FFE70499002081F83C00FFE716
:101FA0009DF807008DF81700FFE79DF8170006B0B1
:101FB00080BD000080B582B00090009820B9FFE796
:101FC00001208DF807003FE0009890F83D0040B9EF
:101FD000FFE70099002081F83C00009800F038F8F5
:101FE000FFE70099022081F83D00009951F8040BA9
:101FF00000F040FC0099012081F84600FFE70099BD
:10200000012081F83E00009981F83F00009981F895
:102010004000009981F84100FFE7FFE700990120A7
:1020200081F84200009981F84300009981F844004A
:10203000009981F84500FFE70099012081F83D00F3
:1020400000208DF80700FFE79DF8070002B080BD73
:1020500080B584B00390039800680021C4F20101A8
:1020600088421BD1FFE7FFE70020029043F64400BF
:10207000C4F20200016841F001010160006800F053
:10208000010002900298FFE71920019000221146FA
:10209000FEF7B6FC0198FEF7A9FCFFE704B080BD8F
:1020A00081B0009001B0704780B582B00190019876
:1020B00040F25801C2F20001884210D1FFE744F219
:1020C0000041C4F2010108680020086044F2244184
:1020D000C4F201010A68086001F0E2FDFFE702B006
:1020E00080BD000081B0009001B0704780B582B023
:1020F0000090009820B9FFE701208DF807003EE02E
:102100000098806908B1FFE700E0FFE7009890F8C9
:102110003D0040B9FFE70099002081F83C0000989D
:1021200000F032F8FFE70099242081F83D00009884
:102130000168C86820F40050C860009800F052FFA1
:1021400000980168086920F49040086100980168CF
:10215000486920F02A00486100980168C86840F486
:102160000050C860009900200864009A202182F87D
:102170003D10009A82F83E108DF80700FFE79DF8A9
:10218000070002B080BD000080B588B00790002035
:10219000069005900490039002900798006844F61A
:1021A0000041C4F20001884232D1FFE7FFE700207E
:1021B000019043F64000C4F20200016841F400219E
:1021C0000160006800F4002001900198FFE7FFE73C
:1021D0000020009043F63000C4F20200016841F094
:1021E00001010160006800F0010000900098FFE725
:1021F0000320029002210391002104910590082000
:1022000006900020C4F2020002A9FEF76DF9FFE774
:1022100008B080BDFFE7FEE780B59AB000201990B6
:102220001890179016901590FFE70020149043F631
:102230003000C4F20200016841F010010160006842
:1022400000F0100014901498FFE7FFE700201390AF
:1022500043F63000C4F20200016841F0040101605D
:10226000006800F0040013901398FFE7FFE70020D8
:10227000129043F63000C4F20200016841F0800180
:102280000160006800F0800012901298FFE7FFE7FD
:102290000020119043F63000C4F20200016841F0C2
:1022A00001010160006800F0010011901198FFE742
:1022B000FFE70020109043F63000C4F202000168EE
:1022C00041F002010160006800F0020010901098D7
:1022D000FFE7FFE700200F9043F63000C4F2020052
:1022E000016841F008010160006800F008000F90EB
:1022F0000F98FFE741F20000C4F2020001904FF690
:102300008041009100220D92FEF7CAFA0D9A40F624
:102310000040C4F20200049048F280010391FEF7ED
:10232000BFFA0D9A40F20040C4F202000A90202148
:102330000891FEF7B5FA01980D9940F27F121592B7
:10234000032202921692179115A90B91FEF7CCF871
:10235000029A0B990D984FF2BF431593169217905E
:1023600040F60000C4F202000590FEF7BDF8029AA4
:102370000B990D9815921692179041F60040C4F2F1
:102380000200FEF7B1F8029A0B990D9841F6DC7342
:102390001593169217900020C4F202000790FEF7E2
:1023A000A3F80798089B0B990D9A1593022316938F
:1023B00017921892012209921992FEF795F8029B42
:1023C0000A980B990D9A4FF6CF6CCDF854C016931E
:1023D0001792FEF789F8DDF800C00198099B0B9968
:1023E0000D9ACDF854C0169317921892FEF77CF808
:1023F000029B04980B990D9A47F27F7CCDF854C04C
:1024000016931792FEF770F804980B990D9A4FF4F3
:102410000063159316921792FEF766F8DDF80CC06C
:102420000498099B0B990D9ACDF854C016931792F6
:102430001892FEF759F805980B990D9A4FF43463EA
:1024400015934FF40413069316931792FEF74CF866
:10245000069B07980B990D9A4FF4004CCDF854C089
:1024600016931792FEF740F80A980B990D9A1023CD
:10247000159316921792FEF737F8DDF820C0099BE6
:102480000A980B990D9ACDF854C01693179218928A
:10249000FEF72AF80D9A17200C901146FEF7B0FAB5
:1024A0000C98FEF7A3FA0D9A28200E901146FEF71D
:1024B000A7FA0E98FEF79AFA1AB080BD80B584B0DC
:1024C0000021039102910191009140F25800C2F263
:1024D000000044F20042C4F2010202600F22426096
:1024E00081604FF47A72C26001618161FFF7D6F8B2
:1024F00018B1FFE7FDF7F4FEFFE740F25800C2F223
:102500000000FFF79FFA18B1FFE7FDF7E9FEFFE7CC
:1025100000220092012001900292039240F25800A2
:10252000C2F200006946FFF7F5F918B1FFE7FDF7C1
:10253000D7FEFFE704B080BD80B594B000210191C3
:1025400013911291119110910F910E910D910C9187
:102550000B910A91099108910791069105910491B7
:10256000039140F21000C2F2000002900022C4F277
:10257000010202600F224260816040F2E732C260D5
:10258000016141618161FFF715FD18B1FFE7FDF7BA
:10259000A7FEFFE700201290139040F21000C2F255
:1025A000000012A9FEF7E8FF18B1FFE7FDF798FE5B
:1025B000FFE760200B9000220C920D920E920F927A
:1025C0001092119240F21000C2F200000BA9FFF726
:1025D0004FFC18B1FFE7FDF783FEFFE700200390F3
:1025E00004900590069007904FF4005108910A90CE
:1025F00040F21000C2F2000003A9FEF763FF18B119
:10260000FFE7FDF76DFEFFE740F21000C2F20000A9
:10261000FFF7A8FB14B080BD80B582B00021019106
:10262000009140F2A000C2F2000041F20002C4F2A8
:10263000000202600F22426081604FF6FF72C260AA
:102640008161FFF72BF818B1FFE7FDF749FEFFE7BF
:1026500040F2A000C2F200000821FFF7BDFB18B154
:10266000FFE7FDF73DFEFFE700200090019040F2FC
:10267000A000C2F200006946FEF77EFF18B1FFE736
:10268000FDF72EFEFFE702B080BD000080B582B0EE
:1026900040F2E800C2F20000019044F60041C4F2AA
:1026A000000101604FF4E131416000218160C160AF
:1026B00001610C2242618161C161FFF717FD18B110
:1026C000FFE7FDF70DFEFFE702B080BDFFE7FEE785
:1026D000FFE7FEE788B0079006910592079800F0A3
:1026E000070004900498C0F10700052803D3FFE712
:1026F0000420019004E00498C0F107000190FFE776
:102700000198039004980430062803D8FFE70020BE
:10271000009003E0049803380090FFE700980290CF
:1027200006980399012202FA01F101390840029B3F
:10273000984005999A40013A1140084308B0704703
:10274000704700007047000080B582B0009000988C
:102750000138B0F1807F03D3FFE70120019019E039
:10276000009801384EF21401CEF2000108604FF0DB
:10277000FF300F2100F0F6FC4EF21801CEF20001FE
:10278000002008604EF21002CEF200020721116014
:102790000190FFE7019802B080BD000080B5FEF710
:1027A0009DF880BD80B594B008A83021FDF740FDAC
:1027B000002007900690059004900390FFE700200A
:1027C000029043F64000C4F20200016841F08051DB
:1027D0000160006800F0805002900298FFE7FFE778
:1027E0000020019047F20000C4F20000016841F4AB
:1027F00080410160006800F4804001900198FFE78B
:102800000220089001200B9010200C9000200E90C8
:1028100008A8FEF7E7FA18B1FFE7FDF761FDFFE74B
:102820000F2003900021049105910691079103A8C0
:10283000FEF708F918B1FFE7FDF752FDFFE714B006
:1028400080BD00004EF68851CEF20001086840F4C9
:10285000700008607047000080B540F21000C2F2BE
:102860000000FFF741F940F25800C2F20000FFF704
:102870003BF980BD83B002900191029800680090FE
:1028800002980021C4F20101884225D0FFE7029896
:10289000B0F1804F20D0FFE7029840F20041C4F22F
:1028A0000001884218D0FFE7029840F60001C4F208
:1028B0000001884210D0FFE7029840F60041C4F2C0
:1028C0000001884208D0FFE7029840F20041C4F2BC
:1028D000010188420AD1FFE7009820F070000090C3
:1028E00001984168009808430090FFE70298002192
:1028F000C4F20101884255D0FFE70298B0F1804F41
:1029000050D0FFE7029840F20041C4F20001884233
:1029100048D0FFE7029840F60001C4F20001884267
:1029200040D0FFE7029840F60041C4F2000188421F
:1029300038D0FFE7029840F20041C4F2010188421A
:1029400030D0FFE7029844F20001C4F2010188424E
:1029500028D0FFE7029844F20041C4F20101884206
:1029600020D0FFE7029844F60001C4F2010188423A
:1029700018D0FFE7029841F60001C4F20001884236
:1029800010D0FFE7029841F60041C4F200018842EE
:1029900008D0FFE7029842F20001C4F20001884229
:1029A0000AD1FFE7009820F4407000900198C168B8
:1029B000009808430090FFE7009820F080000199FC
:1029C000496908430090009802990860019880685E
:1029D0000299C862019800680299886202980021F1
:1029E000C4F20101884208D0FFE7029840F200419A
:1029F000C4F20101884205D1FFE7019800690299FC
:102A00000863FFE702990120486103B070470000A6
:102A100085B0049003910499086A20F001000862CF
:102A20000498006A019004984068009004988069B6
:102A30000290029820F070000290029820F00300AB
:102A4000029003980168029808430290019820F0D0
:102A5000020001900398816801980843019004984E
:102A60000021C4F20101884208D0FFE7049840F237
:102A70000041C4F2010188420ED1FFE7019820F025
:102A8000080001900398C1680198084301900198DB
:102A900020F004000190FFE704980021C4F2010136
:102AA000884208D0FFE7049840F20041C4F20101D7
:102AB000884213D1FFE7009820F4807000900098BE
:102AC00020F400700090039841690098084300903A
:102AD00003988169009808430090FFE700980499E3
:102AE0004860029804998861039840680499486393
:102AF00001980499086205B07047000085B0049001
:102B000003910499086A20F0100008620498006A92
:102B1000019004984068009004988069029002989F
:102B200020F4E0400290029820F440700290039854
:102B30000168029840EA01200290019820F02000EC
:102B4000019003988168019840EA0110019004986F
:102B50000021C4F20101884208D0FFE7049840F246
:102B60000041C4F2010188420FD1FFE7019820F033
:102B7000800001900398C168019840EA011001901B
:102B8000019820F040000190FFE704980021C4F272
:102B90000101884208D0FFE7049840F20041C4F2E6
:102BA0000101884215D1FFE7009820F48060009071
:102BB000009820F40060009003984169009840EA72
:102BC0008100009003988169009840EA810000909C
:102BD000FFE7009804994860029804998861039877
:102BE00040680499886301980499086205B07047A9
:102BF00085B0049003910499086A20F480700862FB
:102C00000498006A01900498406800900498C06994
:102C10000290029820F070000290029820F00300C9
:102C2000029003980168029808430290019820F4EA
:102C30000070019003988168019840EA012001909A
:102C400004980021C4F20101884208D0FFE70498EB
:102C500040F20041C4F2010188420FD1FFE7019820
:102C600020F4006001900398C168019840EA0120B7
:102C70000190019820F480600190FFE70498002102
:102C8000C4F20101884208D0FFE7049840F20041F5
:102C9000C4F20101884215D1FFE7009820F480506A
:102CA0000090009820F4005000900398416900982B
:102CB00040EA0110009003988169009840EA0110F1
:102CC0000090FFE700980499486002980499C86151
:102CD000039840680499C86301980499086205B094
:102CE0007047000085B0049003910499086A20F4AD
:102CF000805008620498006A01900498406800902F
:102D00000498C0690290029820F4E0400290029872
:102D100020F44070029003980168029840EA012074
:102D20000290019820F40050019003988168019866
:102D300040EA0130019004980021C4F20101884268
:102D400008D0FFE7049840F20041C4F20101884234
:102D50000BD1FFE7009820F4804000900398416970
:102D6000009840EA81100090FFE7009804994860BD
:102D700002980499C861039840680499086401980E
:102D80000499086205B0704787B0069005910492D7
:102D900003930699086A20F001000862069880698A
:102DA00002900698006A0190069901200022C4F260
:102DB00001029142009044D0FFE706990120B1F151
:102DC000804F00903DD0FFE70699012040F200427D
:102DD000C4F200029142009033D0FFE7069901202F
:102DE00040F60002C4F200029142009029D0FFE7B1
:102DF0000699012040F60042C4F200029142009080
:102E00001FD0FFE70699012040F20042C4F2010200
:102E10009142009015D0FFE70699012044F200028C
:102E2000C4F20102914200900BD0FFE706984EF6E3
:102E30000001CBF6FF710844B0FA80F04009009021
:102E4000FFE70098C00748B1FFE7029820F00300B1
:102E50000290049902980843029004E0029840F01E
:102E600001000290FFE7029820F0F0000290039822
:102E70000001C1B2029808430290019820F00A00B4
:102E80000190059800F00A0101980843019002980A
:102E90000699886101980699086207B0704700009A
:102EA00086B005900491039202930599086A20F078
:102EB000100008620598806901900598006A0090EA
:102EC000019820F4407001900399019840EA012094
:102ED0000190019820F4704001900298000381B2A3
:102EE000019808430190009820F0A00000900498F9
:102EF00000F00A01009840EA01100090019805993D
:102F0000886100980599086206B0704786B0059000
:102F10000491039202930599086A20F48070086274
:102F20000598C06901900598006A0090019820F00A
:102F3000030001900399019808430190019820F043
:102F4000F000019002980001C1B20198084301907D
:102F5000009820F420600090049800F00A01009886
:102F600040EA0120009001980599C86100980599F0
:102F7000086206B07047000086B005900491039285
:102F800002930599086A20F4805008620598C06988
:102F900001900598006A0090019820F4407001901B
:102FA0000399019840EA01200190019820F47040B3
:102FB00001900298000381B20198084301900098A3
:102FC00020F420400090049800F00A01009840EAA4
:102FD0000130009001980599C86100980599086230
:102FE00006B0704780B586B0059005980068006906
:102FF00020F44050059A1168D26810430861059981
:1030000088680B694A69C9691843104308430490EA
:1030100005980068C06849F20C6188430499084328
:1030200005990968C86005980068406920F44070F7
:10303000059A11689269104348610598006841F249
:103040000001C4F20101884209D0FFE70598006839
:1030500041F20041C4F20101884204D1FFE7FDF7CB
:103060003BFE039003E0FDF725FE0390FFE7059884
:10307000C069B0F5004F29D1FFE703981921A0FBE3
:103080000101059A1368029353685A00DB0FFDF79C
:1030900097F80299864648F21F53C5F2EB13AEFB30
:1030A0000320420910014FF0640C02FB1CEC322299
:1030B00002EBCC02A2FB0332F82303EA521300EB2B
:1030C0004300C2F342121044886026E0039819219D
:1030D000A0FB0101059A1368019353689A009B0FA6
:1030E000FDF76EF80199844648F21F52C5F2EB12C3
:1030F000ACFB02304309642003FB10CC322000EB10
:103100000C10A0FB0202F02000EA521000EB0310AA
:10311000C2F3431210448860FFE706B080BD000090
:10312000FFE7FEE781B08DF803009DF9030000285A
:103130000ED4FFE79DF9031001F01F02012090401B
:103140004A094EF20011CEF2000141F82200FFE7D9
:1031500001B070474EF60C50CEF200000068C0F38C
:103160000220704782B08DF8070000919DF907009A
:1031700000280AD4FFE7009800019DF907104EF2DD
:103180000042CEF2000288540BE0009800019DF846
:10319000071001F00F014EF61452CEF200028854CF
:1031A000FFE702B07047000083B00290029800F081
:1031B000070000904EF60C51CEF200010868019015
:1031C00001984FF6FF02104001900198009A40EAE2
:1031D00002200022C0F2FA521043019001980860C8
:1031E00003B0704780B5002000F0D4F800F00AF872
:1031F000102000F0CFF800F005F84FF4FA6000F06E
:103200005BFD80BD80B584B041F20000C4F20200D5
:1032100001904FF4006102910122FDF741FB14205F
:10322000039000F049FD019802990022FDF738FB58
:10323000039800F041FD04B080BD000080B586B069
:103240000020059000F0A6F83C20FDF751F8059A03
:1032500041F20000C4F20200019080210391FDF7C9
:103260001FFB0198059A4FF48061FDF719FB2020A0
:10327000029000F08FF8FFF7C5FF029800F08AF87F
:10328000FFF7C0FF039800F085F8FFF7BBFF282089
:10329000049000F011FD059800F07CF8FFF7B2FFF4
:1032A000C02000F077F8FFF7ADFF049800F004FDB0
:1032B000059800F06FF8FFF7A5FF102000F06AF8FE
:1032C000FFF7A0FF4FF4FA6000F0F6FC059800F05D
:1032D00061F8FFF797FF602000F05CF8FFF792FFBE
:1032E00006B080BD80B582B08DF807008DF806105D
:1032F0009DF806008DF805009DF80700012807D10C
:10330000FFE79DF8050040F040008DF80500FFE75D
:103310009DF8050040F0800000F002F802B080BD8A
:1033200080B582B08DF807009DF8070000F032F8F4
:10333000FFF768FF9DF8070000F00F00000100F0A4
:1033400029F8FFF75FFF02B080BD000080B584B0B0
:103350008DF80F0041F20000C4F2020001908021BC
:1033600002910122FDF79CFA9DF80F0000F012F87F
:10337000FFF748FF9DF80F0000F00F00000100F07C
:1033800009F8FFF73FFF019802990022FDF788FA3C
:1033900004B080BD80B584B08DF80F0041F200000C
:1033A000C4F2020001904FF4004100220292FDF7A6
:1033B00077FA0198029A4FF48041FDF771FA01986B
:1033C000029A4FF40051FDF76BFA0198029A4FF4FC
:1033D0008051FDF765FA9DF80F00000600280AD518
:1033E000FFE741F20000C4F202004FF40041012265
:1033F000FDF756FAFFE79DF80F00400600280AD5B2
:10340000FFE741F20000C4F202004FF480410122C4
:10341000FDF746FAFFE79DF80F00800600280AD561
:10342000FFE741F20000C4F202004FF40051012214
:10343000FDF736FAFFE79DF80F00C00600280AD511
:10344000FFE741F20000C4F202004FF48051012274
:10345000FDF726FAFFE704B080BD000080B582B01A
:1034600001908DF8031000208DF802008DF8020005
:10347000FFE79DF802009DF8031088420DDAFFE790
:1034800001989DF80210405CFFF760FFFFE79DF890
:10349000020001308DF80200EBE702B080BD0000B1
:1034A00080B582B0002000900190FDF725FAFFF76B
:1034B00079F9FEF7B1FEFFF7E9F8FFF7ADF8FFF78E
:1034C0003BF8FEF7FBFFFFF7B9FE00F071FB00F0E1
:1034D000DFFB40F25800C2F20000FEF79BF9009AB1
:1034E00044F20040C4F201000168026040F600406E
:1034F000C4F202004FF40041FDF7D2F9FFE700F0FB
:1035000057F9082803D1FFE700F026F823E000F080
:103510004FF9402803D1FFE700F0BEFA1AE000F0AF
:1035200047F9802803D1FFE700F07CFB11E000F0B1
:103530003FF9102803D1FFE700F002F908E000F09E
:1035400037F9202803D1FFE700F03AFBFFE7FFE758
:10355000FFE7FFE7FFE7D2E780B586B010208DF8E0
:103560001700FFF73FFE0020049001210291FFF7B2
:10357000B9FE43F6B150C0F600000C210391FFF7ED
:103580006DFF02990846FFF7ADFE039943F6C95057
:10359000C0F60000FFF762FF049A40F60040C4F254
:1035A00002004FF40041FDF77BF9FFE700F06AFBF2
:1035B000012857D1FFE79DF817007F2852DCFFE76D
:1035C0009DF8170040008DF81700FFF70BFE002054
:1035D00001210191FFF786FE43F6B150C0F60000CD
:1035E0000C21FFF73BFF01990846FFF77BFE9DF892
:1035F0001700102808D1FFE743F6C950C0F60000B5
:103600000C21FFF72BFF29E09DF81700202808D197
:10361000FFE743F6BE50C0F600000A21FFF71EFF89
:103620001BE09DF81700402808D1FFE743F6DE5065
:10363000C0F600000421FFF711FF0DE09DF8170010
:10364000802808D1FFE743F6F250C0F600000821B9
:10365000FFF704FFFFE7FFE7FFE7FFE7002000F0C9
:103660001FFB6AE000F00EFB022857D1FFE79DF830
:103670001700112852DBFFE79DF8170040088DF86E
:103680001700FFF7AFFD002001210091FFF72AFE90
:1036900043F6B150C0F600000C21FFF7DFFE0099A1
:1036A0000846FFF71FFE9DF81700102808D1FFE716
:1036B00043F6C950C0F600000C21FFF7CFFE29E009
:1036C0009DF81700202808D1FFE743F6BE50C0F64A
:1036D00000000A21FFF7C2FE1BE09DF817004028FA
:1036E00008D1FFE743F6DE50C0F600000421FFF7E3
:1036F000B5FE0DE09DF81700802808D1FFE743F6DE
:10370000F250C0F600000821FFF7A8FEFFE7FFE730
:10371000FFE7FFE7002000F0C3FA0DE000F0B2FA87
:10372000102808D1FFE79DF8170000F06FFA00207D
:1037300000F0B6FA02E0FFE7FFE737E706B080BD2A
:1037400080B582B0FFF74EFD00210846FFF7CAFDA5
:1037500043F6AE50C0F600000221FFF77FFEEF20D7
:103760008DF807000DF1070001210091FFF776FEAB
:1037700043F6D650C0F600000721FFF76FFE009A0F
:1037800040F60040C4F202004FF40041FDF788F813
:10379000FFE700F077FA102807D1FFE7082000F0D4
:1037A00035FA002000F07CFA00E0F2E702B080BDBC
:1037B00040F22C10C2F200000078704780B59CB037
:1037C0008DF86F0000F0B4FA0146109148B1FFE7A0
:1037D000109801284FD0FFE71098022800F08D8044
:1037E000C1E000200D908DF86D00FFF7FBFC00F0AC
:1037F00091FAADF868009DF869000C9000F08AFA23
:1038000001460C98ADF864109DF86410FFF76AFD4E
:103810003E208DF86E000DF16E000E9001210F918B
:10382000FFF71CFE0D980F99FFF75CFD43F629602A
:10383000C0F600000C21FFF711FE0F990846FFF7B4
:1038400051FD43F60960C0F600000F21FFF706FEA8
:103850000F98D9218DF86E100E21FFF743FD0E98B9
:103860000F99FFF7FBFD0E980F99DA228DF86E2065
:10387000FFF7F4FD0DE1FFF7B5FC00F04BFAADF8F2
:1038800060009DF86100099000F044FA0146099833
:10389000ADF85C109DF85C10FFF724FD3E208DF81C
:1038A0006E000DF16E000A9001210B91FFF7D6FD1D
:1038B0000B990020FFF716FD43F61960C0F60000D3
:1038C0000F21FFF7CBFD0B990846FFF70BFD0A9878
:1038D0000B99D9228DF86E20FFF7C0FD0A980B993D
:1038E000DA228DF86E20FFF7B9FD43F64560C0F689
:1038F00000000C21FFF7B2FDCBE002208DF86D0037
:10390000FFF770FC00F006FAADF858009DF859007A
:10391000079000F0FFF901460798ADF854109DF8A4
:103920005410FFF7DFFC3E208DF86E000DF16E00A5
:1039300001210891FFF792FD08990020FFF7D2FCC2
:1039400043F63660C0F600000E21FFF787FD0899A8
:103950000846FFF7C7FC43F65260C0F600000D2191
:10396000FFF77CFD95E09DF86D00022851D1FFE73F
:103970000020069000F0F4F90699084600F0DEF900
:10398000FFF730FC00F0C6F9ADF850009DF851008B
:10399000039000F0BFF901460398ADF84C109DF874
:1039A0004C10FFF79FFC3E208DF86E000DF16E006D
:1039B000049001210591FFF751FD05990698FFF745
:1039C00091FC43F62960C0F600000C21FFF746FD8C
:1039D00005990846FFF786FC43F60960C0F600002B
:1039E0000F21FFF73BFD0598D9218DF86E100E21B0
:1039F000FFF778FC04980599FFF730FD04980599C6
:103A0000DA228DF86E20FFF729FD06988DF86D00FB
:103A10003EE09DF86D00D0BBFFE70220029000F071
:103A20009FF9FFF7DFFB00F075F9ADF848009DF84E
:103A30004900009000F06EF901460098ADF844107E
:103A40009DF84410FFF74EFC3E208DF86E000DF1FE
:103A50006E0001210191FFF701FD01990020FFF7A0
:103A600041FC43F63660C0F600000E21FFF7F6FC7D
:103A700001990846FFF736FC43F65260C0F6000095
:103A80000D21FFF7EBFC02988DF86D00FFE7FFE7D3
:103A9000FFE71CB080BD000080B586B0002001901B
:103AA00000F05EF90199084600F048F900F040F98D
:103AB000FFF784FEFFE700F0E5F8012833D1FFE7C8
:103AC00000F028F9ADF814009DF81500012805D183
:103AD000FFE70021084600F031F91FE000F01AF975
:103AE000ADF810009DF81100B8B9FFE700F020F91B
:103AF0000138B0F1FF3F04DCFFE7022000F030F9AD
:103B000006E000F015F90138C0B200F029F9FFE72E
:103B10000020012100F012F9FFE7FFE700F008F9AB
:103B2000FFF74CFE37E000F0ADF8022832D1FFE796
:103B300000F0F0F8ADF80C009DF80D0028B9FFE793
:103B40000020012100F0FAF81FE000F0E3F8ADF8E2
:103B500008009DF80900012816D1FFE700F0E8F8F9
:103B60000130032804DBFFE7002000F0F9F806E04D
:103B700000F0DEF80130C0B200F0F2F8FFE70021FB
:103B8000084600F0DBF8FFE7FFE700F0D1F8FFF7A9
:103B900015FEFFE7FFE700F075F8102804D1FFE7F6
:103BA000082000F033F800E085E706B080BD000093
:103BB00040F22C11C2F2000108200870704700008A
:103BC00080B5FFF70FFB00210846FFF78BFB43F69C
:103BD000E350C0F600000E21FFF740FC40F6004025
:103BE000C4F202004FF400410122FCF759FEFFE746
:103BF00000F048F8102807D1FFE7082000F006F889
:103C0000002000F04DF800E0F2E780BD81B08DF8B3
:103C100003009DF8030040F22C11C2F2000108706D
:103C200001B0704780B582B00020019000F098F894
:103C30000199084600F082F8FFF7D4FA0199084686
:103C4000FFF750FB43F6FB50C0F600000D21FFF7D5
:103C500005FC40F60040C4F202004FF4004101228E
:103C6000FCF71EFEFFE700F00DF8102807D1FFE774
:103C70000820FFF7CBFF002000F012F800E0F2E789
:103C800002B080BD40F22E10C2F2000000887047E2
:103C900040F22E11C2F2000100200880704700009F
:103CA00081B0ADF80200BDF8020040F22E11C2F260
:103CB0000001088001B0704781B0ADF80200FFE755
:103CC000BDF8020040F2A001C2F200010A68D06211
:103CD000BDF80200C860FFE740F2A000C2F2000099
:103CE00002680021516202686FF0010111610168F0
:103CF000086840F001000860FFE740F2A000C2F24F
:103D0000000000680069C00708B9FFE7F5E701B0E7
:103D10007047000081B040F23010C2F20000B0F8ED
:103D20000100ADF80000BDF8000001B070470000D0
:103D300040F23010C2F200000078704781B08DF878
:103D400003008DF802109DF8030040F23011C2F21A
:103D5000000148709DF80200887001B070470000B3
:103D600081B08DF803009DF8030040F23011C2F2DB
:103D70000001087001B0704702E008C8121F08C1B6
:103D8000002AFAD170477047002001E001C1121FDC
:103D9000002AFBD170470000000000000000010273
:103DA000030406070809000000000102030431367D
:103DB0000043686F6F7365206D6F64653A005361EF
:103DC00076656420646174610043757272656E7417
:103DD00020646174610063656C7369756D0048658A
:103DE0006C70006D656E73686520646567726565EB
:103DF000730053657474696E6773005469706F2043
:103E000073657474696E677300546F206D6F7665A7
:103E1000207072657373202000496E2063686F699B
:103E20006365206D6F64653A0020202048454C5042
:103E3000204D454E5500546F2073656C65637420AA
:103E40006D6F646500204D6F64652073656C6563FC
:103E500074005072657373206D6964206B6579001E
:103E6000803E00080000002010000000783D00089F
:103E7000903E00081000002028050000883D000842
:103E80000024F40001000000100000000000000009
:040000050800018965
:00000001FF
