:020000040800F2
:10000000100500209D010008D9270008E5220008FE
:10001000D5270008A9020008C13000080000000030
:100020000000000000000000000000005D29000842
:10003000AD0200080000000049280008B5290008AA
:10004000B7010008B7010008B7010008B7010008B0
:10005000B7010008B7010008B7010008B7010008A0
:10006000B7010008B7010008B7010008B701000890
:10007000B7010008B7010008B7010008B701000880
:10008000B7010008B7010008B7010008B701000870
:10009000B7010008B7010008B7010008C502000851
:1000A000B7010008B7010008B7010008B701000850
:1000B000B7010008B7010008B7010008B701000840
:1000C000B7010008B7010008B7010008B701000830
:1000D000B7010008B7010008B7010008B701000820
:1000E000B1020008B7010008B7010008B701000815
:1000F000B7010008B7010008B7010008B701000800
:10010000B7010008B7010008B7010008B7010008EF
:10011000B7010008B7010008B7010008B7010008DF
:10012000B7010008B7010008B7010008B7010008CF
:10013000B7010008B7010008B7010008B7010008BF
:10014000B7010008B7010008B7010008B7010008AF
:10015000B7010008B7010008B7010008B70100089F
:10016000B7010008B7010008B7010008B70100088F
:10017000B7010008B7010008B7010008000000003F
:10018000B7010008B7010008DFF80CD000F07AF8DA
:100190000048004741340008100500200648804709
:1001A00006480047FEE7FEE7FEE7FEE7FEE7FEE75C
:1001B000FEE7FEE7FEE7FEE75D2A0008890100088A
:1001C0002DE9F05F0546002092469B46884606468C
:1001D000814640241BE0284641464746224600F01F
:1001E00041F853465A46C01A914110D31146184659
:1001F000224600F028F82D1A67EB01084F462246E8
:100200000120002100F01FF817EB00094E41201ECD
:10021000A4F10104DFDC484631462A464346BDE8E6
:10022000F09FD2B201E000F8012B491EFBD27047CB
:100230000022F6E710B513460A4604461946FFF7B2
:10024000F0FF204610BD202A04DB203A00FA02F11C
:10025000002070479140C2F1200320FA03F31943B4
:1002600090407047202A04DB203A21FA02F0002156
:10027000704721FA02F3D040C2F1200291400843B6
:1002800019467047064C074D06E0E06840F0010350
:1002900094E8070098471034AC42F6D3FFF778FF94
:1002A0006436000884360008FFE7FEE77047000068
:1002B00080B54FF4006000F087F84FF4004000F084
:1002C00083F880BD80B5402000F07EF84FF4807048
:1002D00000F07AF84FF4007000F076F880BD00006E
:1002E00081B0EFF3108072B60090FFE7FEE70000E8
:1002F00080B584B0039000F077FA029003980190E3
:100300000198013048B1FFE740F20400C2F200005A
:100310000178019808440190FFE7FFE700F064FAD4
:100320000299401A0199884201D2FFE7F6E704B02A
:1003300080BD000080B582B0ADF80600BDF80600B3
:10034000402807D1FFE703F01BF940F0010003F05C
:1003500025F937E0BDF80600B0F5807F07D1FFE74B
:1003600003F00EF940F0020003F018F929E0BDF89F
:100370000600B0F5004F07D1FFE703F001F940F0A8
:10038000100003F00BF91BE0BDF80600B0F5007F8C
:1003900007D1FFE703F0F4F840F0040003F0FEF8A3
:1003A0000DE0BDF80600B0F5006F07D1FFE703F0E0
:1003B000E7F840F0080003F0F1F8FFE7FFE7FFE798
:1003C000FFE7FFE702B080BD80B582B0ADF8060060
:1003D00043F61440C4F201000068BDF8061008425C
:1003E0000CD0FFE7BDF8060043F61441C4F201014A
:1003F0000860BDF80600FFF79DFFFFE702B080BD73
:100400008EB00D900C9100200A90099008900B90EE
:10041000FFE70B980F2800F2CC81FFE70B99012032
:1004200088400A900C9800680A9908400990099839
:100430000A99884240F0B881FFE70C98406800F0C4
:100440000300012807D0FFE70C98406800F0030084
:1004500002282FD1FFE70D98806808900B98410083
:10046000032000FA01F10898884308900C98C068AE
:100470000B99490000FA01F1089808430890089880
:100480000D9988600D98406808900B99012000FA3A
:1004900001F10898884308900C984068C0F3001058
:1004A0000B9900FA01F108980843089008980D99F3
:1004B0004860FFE70C98406800F00300032818D05C
:1004C000FFE70D98C06808900B984100032000FAE0
:1004D00001F10898884308900C9880680B994900AE
:1004E00000FA01F108980843089008980D99C8602F
:1004F000FFE70C98406800F00300022826D1FFE7D0
:100500000D980B996FF0030202EA51010844006A4A
:1005100008900B9800F0070081000F2000FA01F10D
:100520000898884308900C9800690B9901F007011E
:10053000890000FA01F108980843089008980D997D
:100540000B9B02EA530211440862FFE70D98006812
:1005500008900B984100032000FA01F108988843A5
:1005600008900C98406800F003000B99490000FACD
:1005700001F108980843089008980D9908600C98B4
:1005800080798007002800F00E81FFE7FFE7002058
:10059000079043F64400C4F20200016841F4804130
:1005A0000160006800F4804007900798FFE70B980F
:1005B00020F0030043F60801C4F2010140580890FE
:1005C0000B9800F0030081000F2000FA01F1089859
:1005D000884308900D980021C4F20201884203D19B
:1005E000FFE7002006905EE00D9840F20041C4F263
:1005F0000201884203D1FFE70120059050E00D98E9
:1006000040F60001C4F20201884203D1FFE7022054
:10061000049042E00D9840F60041C4F20201884285
:1006200003D1FFE70320039034E00D9841F200016D
:10063000C4F20201884203D1FFE70420029026E0C1
:100640000D9841F20041C4F20201884203D1FFE754
:100650000520019018E00D9841F60001C4F2020156
:10066000884203D1FFE7062000900AE00D9941F689
:100670000042C4F202020820914208BF0720009005
:10068000FFE700980190FFE701980290FFE70298CA
:100690000390FFE703980490FFE704980590FFE7B5
:1006A00005980690FFE70698C0B20B9901F0030188
:1006B000890000FA01F108980843089008980B99FE
:1006C00021F0030143F60802C4F20102885043F608
:1006D0000840C4F20100006808900999089888430E
:1006E00008900C988079C006002805D5FFE7099985
:1006F000089808430890FFE7089843F60841C4F2B9
:100700000101086043F60C40C4F201000068089043
:1007100009990898884308900C98807980060028E9
:1007200005D5FFE70999089808430890FFE708985E
:1007300043F60C41C4F20101086043F60440C4F2E0
:1007400001000068089009990898884308900C985F
:1007500080798007002805D5FFE7099908980843A4
:100760000890FFE7089843F60441C4F201010860CD
:1007700043F60040C4F20100006808900999089807
:10078000884308900C988079C00728B1FFE7099941
:10079000089808430890FFE7089843F60041C4F220
:1007A00001010860FFE7FFE7FFE70B9801300B90BE
:1007B0002FE60EB07047000082B00190ADF8021035
:1007C0008DF801209DF8010028B1FFE7BDF8020077
:1007D0000199886105E0BDF8020000040199886173
:1007E000FFE702B07047000040F20810C2F20000BC
:1007F0000068704740F20400C2F20000027840F244
:100800000811C2F200010868104408607047000037
:1008100080B543F60041C4F20201086840F400705C
:100820000860086840F480600860086840F48070E0
:100830000860032000F08AF80F2000F005F800F0AF
:100840003BF8002080BD000080B582B0009040F2EF
:100850000000C2F20000006840F20401C2F2000190
:100860000A784FF47A71B1FBF2F1B0FBF1F001F0CC
:10087000B3F920B1FFE701208DF8070018E00098D8
:100880000F280DD8FFE700994FF0FF30002200F04D
:1008900043F8009840F20801C2F20001086003E04A
:1008A00001208DF8070003E000208DF80700FFE726
:1008B0009DF8070002B080BD82B0FFE700200190E4
:1008C00043F64400C4F20200016841F48041016033
:1008D000006800F4804001900198FFE7FFE70020E6
:1008E000009043F64000C4F20200016841F08051DC
:1008F0000160006800F0805000900098FFE702B0AF
:100900007047000080B582B08DF807009DF90700A0
:1009100002F0D8FB02B080BD80B586B08DF817001C
:10092000049103920020029002F0E4FB02909DF9F2
:100930001700019002980499039A01F04FFF0146B5
:10094000019802F0DFFB06B080BD000080B582B0E8
:100950000190019802F0F8FB02B080BD80B586B02E
:10096000049000200390029004980078C00730B9EA
:10097000FFE704980078400700284ED5FFE768217C
:10098000C4F2472100200860FFF72EFF0390FFE725
:1009900043F60000C4F20200006800F0006100208D
:1009A000B0EBD16F0CD0FFE7FFF71EFF0399401AA1
:1009B000032804D3FFE703208DF81700E4E0E7E7FE
:1009C000049948688968800140EA017043F684010F
:1009D000C4F2020108606821C4F2472101200860C6
:1009E000FFF702FF0390FFE743F60000C4F20200A6
:1009F000006800F000610020B0EBD16F0CD1FFE780
:100A0000FFF7F2FE0399401A032804D3FFE70320FF
:100A10008DF81700B8E0E7E7FFE704980078800753
:100A2000002840F1AD80FFE7FFE70020019043F68A
:100A30004000C4F20200016841F08051016000688A
:100A400000F0805001900198FFE747F20001C4F2E6
:100A50000001086840F480700860FFF7C5FE03904D
:100A6000FFE747F20000C4F200000068C00500285C
:100A70000CD4FFE7FFF7B8FE0399401A032804D30C
:100A8000FFE703208DF817007EE0EAE743F67000E9
:100A9000C4F20200006800F440700290029800283E
:100AA0003ED0FFE702980499C96801F4407188427A
:100AB00036D0FFE743F67000C4F20200016821F46B
:100AC0004071029140F64062C4F247220121116058
:100AD00000211160029901600068C007F8B1FFE7CA
:100AE000FFF782FE0390FFE743F67000C4F20200B6
:100AF000006800F002010020B0EB510F0ED1FFE7BB
:100B0000FFF772FE0399401A41F28931884204D3FB
:100B1000FFE703208DF8170036E0E5E7FFE7FFE782
:100B2000FFE70498C06800F44070B0F5407F11D131
:100B3000FFE743F60801C4F20201086820F4F81048
:100B4000049AD2684FF6FF43C0F6FF731A40104371
:100B5000086008E043F60801C4F20201086820F4C6
:100B6000F8100860FFE70498C2686FF31F3243F67D
:100B70007001C4F20201086810430860FFE7FFE754
:100B800000208DF81700FFE79DF8170006B080BD24
:100B900080B584B002900191029820B9FFE701204E
:100BA0008DF80F0021E1019843F60041C4F20201E3
:100BB000096801F00701884212D9FFE7019943F65D
:100BC0000040C4F202000170006800F007000199C3
:100BD000884204D0FFE701208DF80F0005E1FFE710
:100BE00002980078800700282AD5FFE7029800784D
:100BF0004007002809D5FFE743F60801C4F20201C7
:100C0000086840F4E0500860FFE7029800780007A9
:100C1000002809D5FFE743F60801C4F2020108687D
:100C200040F460400860FFE743F60801C4F20201A7
:100C3000086820F0F000029A926810430860FFE70D
:100C400002980078C00700286ED0FFE7029840683D
:100C5000012811D1FFE743F60000C4F2020000684A
:100C600000F400310020B0EB514F04D1FFE7012028
:100C70008DF80F00B9E02CE002984068022805D0FA
:100C8000FFE702984068032811D1FFE743F6000010
:100C9000C4F20200006800F000710020B0EB516F58
:100CA00004D1FFE701208DF80F009EE010E043F62D
:100CB0000000C4F20200006800F002010020B0EB66
:100CC000510F04D1FFE701208DF80F008DE0FFE701
:100CD000FFE743F60801C4F20201086820F00300B0
:100CE000029A526810430860FFF77EFD0090FFE70C
:100CF00043F60800C4F20200006800F00C000299FC
:100D00004968B0EB810F0ED0FFE7FFF76DFD00994A
:100D1000401A41F28931884204D3FFE703208DF85D
:100D20000F0062E0E4E7FFE7019843F60041C4F2F8
:100D30000201096801F00701884212D2FFE7019918
:100D400043F60040C4F202000170006800F00700A2
:100D50000199884204D0FFE701208DF80F0044E09C
:100D6000FFE702980078400700280CD5FFE743F61C
:100D70000801C4F20201086820F4E050029AD26827
:100D800010430860FFE702980078000700280DD59F
:100D9000FFE743F60801C4F20201086820F460404E
:100DA000029A126940EAC2000860FFE700F04CF8BE
:100DB00043F60801C4F202010968C9B20A0943F204
:100DC0002C61C0F60001895CC84040F20001C2F20B
:100DD0000001086040F20800C2F200000068FFF75E
:100DE00033FD00208DF80F00FFE79DF80F0004B0E1
:100DF00080BD000040F20000C2F2000000687047B1
:100E000080B5FFF7F7FF43F60801C4F20201096855
:100E1000C1F3822243F23C61C0F60001895CC84004
:100E200080BD000080B5FFF7E5FF43F60801C4F27E
:100E30000201096889B24A0B43F23C61C0F6000125
:100E4000895CC84080BD000080B586B00020059058
:100E500004900390029043F60800C4F20200006878
:100E600000F00C000146019140B1FFE70198042811
:100E70000AD0FFE7019808280CD04FE042F200406A
:100E8000C0F2F40002904FE047F64000C0F27D103F
:100E9000029049E043F60400C4F20200016801F048
:100EA0003F01059100684002002813D5FFE743F693
:100EB0000400C4F202000068C0F3881047F6400145
:100EC000C0F27D11A0FB0101059A0023FFF778F91C
:100ED000049012E043F60400C4F202000068C0F37C
:100EE000881042F20041C0F2F401A0FB0101059A12
:100EF0000023FFF765F90490FFE743F60400C4F20E
:100F00000200006800F44031022000EBD130039071
:100F100004980399B0FBF1F0029005E042F2004022
:100F2000C0F2F4000290FFE7029806B080BD000016
:100F300080B586B00490049820B9FFE701208DF8B1
:100F4000170050E304980078C007002800F0A5803F
:100F5000FFE743F60800C4F20200006800F00C004E
:100F6000042813D0FFE743F60800C4F2020000682B
:100F700000F00C0008281ED1FFE743F60400C4F27D
:100F8000020000684002002815D5FFE743F6000084
:100F9000C4F20200006800F400310020B0EB514FB1
:100FA00008D0FFE70498406820B9FFE701208DF8DA
:100FB000170018E370E0FFE704984068B0F5803F41
:100FC00009D1FFE743F60001C4F20201086840F4CA
:100FD0008030086020E004984068B0F5A02F0DD163
:100FE000FFE743F60001C4F20201086840F48020E4
:100FF0000860086840F4803008600CE043F60001A7
:10100000C4F20201086820F480300860086820F407
:1010100080200860FFE7FFE7FFE704984068E8B139
:10102000FFE7FFF7E1FB0390FFE743F60000C4F2A0
:101030000200006800F400310020B0EB514F0CD1E9
:10104000FFE7FFF7D1FB0399401A652804D3FFE7B8
:1010500003208DF81700C6E2E7E71CE0FFF7C4FBAA
:101060000390FFE743F60000C4F20200006800F4BA
:1010700000310020B0EB514F0CD0FFE7FFF7B4FB7D
:101080000399401A652804D3FFE703208DF8170061
:10109000A9E2E7E7FFE7FFE7FFE7049800788007AA
:1010A000002840F19680FFE743F60800C4F20200F2
:1010B000006810F00C0F13D0FFE743F60800C4F2ED
:1010C0000200006800F00C0008282CD1FFE743F66E
:1010D0000400C4F2020000684002002823D4FFE7A5
:1010E00043F60000C4F20200006800F00201002094
:1010F000B0EB510F09D0FFE70498C068012804D075
:10110000FFE701208DF817006DE243F60001C4F2FD
:101110000201086820F0F800049A126940EAC2004F
:101120000860FFE754E00498C06870B3FFE700214F
:10113000C4F2472101200860FFF756FB0390FFE748
:1011400043F60000C4F20200006800F00201002033
:10115000B0EB510F0CD1FFE7FFF746FB0399401AA4
:10116000032804D3FFE703208DF817003BE2E7E7ED
:1011700043F60001C4F20201086820F0F800049A66
:10118000126940EAC200086021E00021C4F2472150
:1011900000200860FFF728FB0390FFE743F60000FC
:1011A000C4F20200006800F002010020B0EB510F11
:1011B0000CD0FFE7FFF718FB0399401A032804D36C
:1011C000FFE703208DF817000DE2E7E7FFE7FFE7F1
:1011D000FFE704980078000700284BD5FFE7049844
:1011E000406918B3FFE740F68061C4F2472101204F
:1011F0000860FFF7F9FA0390FFE743F67400C4F2C2
:101200000200006800F002010020B0EB510F0CD189
:10121000FFE7FFF7E9FA0399401A032804D3FFE731
:1012200003208DF81700DEE1E7E722E040F6806159
:10123000C4F2472100200860FFF7D6FA0390FFE7C9
:1012400043F67400C4F20200006800F002010020BE
:10125000B0EB510F0CD0FFE7FFF7C6FA0399401A25
:10126000032804D3FFE703208DF81700BBE1E7E76D
:10127000FFE7FFE7049800784007002840F1CE80A0
:10128000FFE700208DF8070043F64000C4F202009B
:101290000068C000002815D4FFE7FFE70020009099
:1012A00043F64000C4F20200016841F08051016041
:1012B000006800F0805000900098FFE701208DF852
:1012C0000700FFE747F20000C4F200000068C00515
:1012D000002822D4FFE747F20001C4F200010868A9
:1012E00040F480700860FFF77FFA0390FFE747F251
:1012F0000000C4F200000068C00500280CD4FFE71D
:10130000FFF772FA0399401A032804D3FFE703207A
:101310008DF8170067E1EAE7FFE7FFE704988068C8
:10132000012809D1FFE743F67001C4F20201086801
:1013300040F0010008601FE00498806805280DD186
:10134000FFE743F67001C4F20201086840F00400B0
:101350000860086840F0010008600CE043F6700186
:10136000C4F20201086820F001000860086820F05B
:1013700004000860FFE7FFE7FFE704988068F8B122
:10138000FFE7FFF731FA0390FFE743F67000C4F27E
:101390000200006800F002010020B0EB510F0ED1F6
:1013A000FFE7FFF721FA0399401A41F28931884299
:1013B00004D3FFE703208DF8170014E1E5E71EE0F2
:1013C000FFF712FA0390FFE743F67000C4F2020041
:1013D000006800F002010020B0EB510F0ED0FFE7D3
:1013E000FFF702FA0399401A41F28931884204D387
:1013F000FFE703208DF81700F5E0E5E7FFE79DF82C
:101400000700012809D1FFE743F64001C4F20201B9
:10141000086820F080500860FFE7FFE704988069C3
:10142000002800F0DC80FFE743F60800C4F2020069
:10143000006800F00C00082800F08580FFE70498A1
:10144000806902285CD1FFE76021C4F247210020B7
:101450000860FFF7C9F90390FFE743F60000C4F204
:101460000200006800F000710020B0EB516F0CD05A
:10147000FFE7FFF7B9F90399401A032804D3FFE700
:1014800003208DF81700AEE0E7E70499C869D1F8AA
:1014900020C04B6A8A6A40EA0C0040EA8310D203FB
:1014A0004FF6FF739A43A2F580321043C96A40EAAF
:1014B000016043F60401C4F2020108606021C4F235
:1014C000472101200860FFF78FF90390FFE743F6FB
:1014D0000000C4F20200006800F000710020B0EBD0
:1014E000516F0CD1FFE7FFF77FF90399401A0328EA
:1014F00004D3FFE703208DF8170074E0E7E721E04D
:101500006021C4F2472100200860FFF76DF90390C5
:10151000FFE743F60000C4F20200006800F000712B
:101520000020B0EB516F0CD0FFE7FFF75DF9039996
:10153000401A032804D3FFE703208DF8170052E078
:10154000E7E7FFE74AE004988069012804D1FFE754
:1015500001208DF8170046E043F60400C4F20200B3
:101560000068029004988069012831D0FFE7029852
:1015700000F480000499C969884229D1FFE70298E4
:1015800000F03F000499096A884221D1FFE70298E0
:1015900047F6C07108400499496AB0EB811F17D122
:1015A000FFE7029800F440300499896AC9034FF6B6
:1015B000FF729143A1F58031884209D1FFE702987B
:1015C00000F070600499C96AB0EB016F04D0FFE7C6
:1015D00001208DF8170006E0FFE7FFE7FFE7002096
:1015E0008DF81700FFE79DF8170006B080BD0000DA
:1015F00085B003900291019240F20000C2F2000017
:101600000068400944F6D351C1F26201A0FB011009
:1016100080094FF47A7148430090FFE70398007FF8
:10162000012804D1FFE702208DF81300BEE00399E2
:1016300001200877FFE7FFE7039902204877FFE7DB
:1016400003980168CA2048620398016853204862E1
:10165000FFE70398006880684005002824D5FFE76D
:10166000FFE70098411E009190B9FFE7FFE703985C
:101670000168FF204862FFE7039903204877FFE7EE
:10168000039900200877FFE703208DF813008DE011
:10169000FFE703980068C06800F004010020B0EB89
:1016A000910FDED1FFE7FFE703980168886820F417
:1016B0008060886003980068C06860F4906020F4DF
:1016C000806003990968C86040F20000C2F200001F
:1016D0000068400944F6D351C1F26201A0FB011039
:1016E00080094FF47A7148430090FFE70098411E4B
:1016F000009190B9FFE7FFE703980168FF20486277
:10170000FFE7039903204877FFE703990020087754
:10171000FFE703208DF8130048E0FFE70398006817
:10172000C06800F004010020B0EB910FDED0FFE7AD
:1017300003980168886820F007008860019A039880
:1017400001688868104388600298039909684861B5
:1017500043F60041C4F20101086840F480000860CB
:1017600043F60841C4F20101086840F480000860B3
:1017700003980168886840F4804088600398016895
:10178000886840F480608860FFE703980168FF2064
:101790004862FFE7039901204877FFE7039900209B
:1017A0000877FFE700208DF81300FFE79DF813008E
:1017B00005B0704780B584B0029001208DF8070015
:1017C000029820B9FFE701208DF80F0063E002982E
:1017D000407F38B9FFE7029900200877029800F0AF
:1017E0005FF8FFE7029902204877FFE70298016857
:1017F000CA2048620298016853204862FFE70298B5
:1018000001F046F88DF807009DF8070020BBFFE7C0
:101810000298016888684FF6BF72CFF68F72104049
:101820008860029A1168506813695269184302432C
:1018300088681043886002980168C068086102984F
:1018400001688268086940EA02400861029801F074
:1018500061F88DF80700FFE79DF8070080B9FFE702
:1018600002980168086C20F48020086402980168DE
:101870008269086C10430864029901204877FFE7E9
:10188000FFE702980168FF204862FFE79DF8070024
:101890008DF80F00FFE79DF80F0004B080BD000039
:1018A00080B586B0059000200490039002900190CE
:1018B0000598006842F60001C4F2000188421DD17B
:1018C000FFE7022001904FF40070049001A8FFF799
:1018D00045F818B1FFE7FEF703FDFFE740F63C616E
:1018E000C4F2472101200860032000900022114625
:1018F000FFF712F80098FFF705F8FFE706B080BD84
:1019000080B588B006900591049200200390FFE70F
:101910000698007F012804D1FFE702208DF81F0000
:101920007DE0069901200877FFE7FFE7069902208E
:101930004877049868B9FFE705984078C006002802
:1019400007D5FFE70599487800F0EF000A304870A6
:10195000FFE70498E0B9FFE70598C07800F076FF4C
:10196000000400900598407800F070FF0146009850
:1019700040EA012001900598807800F067FF014659
:10198000019808440599097840EA413003900CE039
:101990000598017843788278C078000440EA0320F3
:1019A000104440EA41300390FFE7FFE706980168E2
:1019B000CA2048620698016853204862FFE70698EB
:1019C00000F066FF8DF80B009DF80B0078B9FFE77B
:1019D00003984FF63F71C0F2FF010840069909686D
:1019E0004860069800F096FF8DF80B00FFE79DF821
:1019F0000B0020B9FFE7069901204877FFE7FFE7D2
:101A000006980168FF204862FFE7FFE7069900207B
:101A10000877FFE79DF80B008DF81F00FFE79DF8A2
:101A20001F0008B080BD000080B588B00690059109
:101A3000049200200390FFE70698007F012804D15C
:101A4000FFE702208DF81F0095E006990120087736
:101A5000FFE7FFE7069902204877049840BBFFE7BD
:101A60000698006880684006002801D5FFE703E07B
:101A700005990020C870FFE70598007800F0E6FEA1
:101A8000000400900598407800F0E0FE01460098C0
:101A900040EA012001900598807800F0D7FE0146C9
:101AA000019808440599C97840EA8150039018E0EC
:101AB0000698006880684006002801D5FFE703E02B
:101AC00005990020C870FFE7059908784B788A7857
:101AD000C978000440EA0320104440EA8150039092
:101AE000FFE7FFE706980168CA2048620698016888
:101AF00053204862FFE7069800F0CAFE8DF80B00FD
:101B00009DF80B00F8B9FFE7039847F67F71C0F224
:101B10007F0108400699096808600698016888688E
:101B200020F4802088600599C868096940EA0102AC
:101B300006980168886810438860069800F0EAFEFD
:101B40008DF80B00FFE79DF80B0020B9FFE7069921
:101B500001204877FFE7FFE706980168FF20486209
:101B6000FFE7FFE7069900200877FFE79DF80B00E5
:101B70008DF81F00FFE79DF81F0008B080BD000032
:101B800080B584B002900020019002980168C86876
:101B900020F0A000C860FEF727FE0190FFE7029842
:101BA0000068C068800600280DD4FFE7FEF71CFE21
:101BB0000199401AB0F57A7F04D9FFE703208DF828
:101BC0000F0004E0EBE700208DF80F00FFE79DF821
:101BD0000F0004B080BD000080B582B00190019874
:101BE00000F0BEFE02B080BD84B0029001910020E2
:101BF0000090FFE7029890F83C00012804D1FFE72D
:101C000002208DF80F0044E00299012081F83C0089
:101C1000FFE7FFE7009820F0FF000199C96808433B
:101C20000090009820F44070019989680843009062
:101C3000009820F48060019949680843009000985A
:101C400020F400600199096808430090009820F48E
:101C500080500199096908430090009820F40050D1
:101C60000199496908430090009820F48040019947
:101C7000C969084300900098029909684864FFE721
:101C80000299002081F83C00FFE700208DF80F004A
:101C9000FFE79DF80F0004B07047000085B0039087
:101CA0000291FFE7039890F83C00012804D1FFE778
:101CB00002208DF813007EE00399012081F83C009A
:101CC000FFE7FFE70399022081F83D0003980068D1
:101CD000406801900398006880680090019820F0A7
:101CE00070000190029801680198084301900198E2
:101CF000039909684860039800680021C4F2010153
:101D000088423CD0FFE703980068B0F1804F36D09E
:101D1000FFE70398006840F20041C4F200018842E6
:101D20002DD0FFE70398006840F60001C4F20001DF
:101D3000884224D0FFE70398006840F60041C4F2CF
:101D4000000188421BD0FFE70398006840F2004181
:101D5000C4F20101884212D0FFE70398006844F200
:101D60000001C4F20101884209D0FFE7039800682E
:101D700041F60001C4F2000188420ED1FFE700984D
:101D800020F080000090029841680098084300907D
:101D90000098039909688860FFE70399012081F89A
:101DA0003D00FFE70399002081F83C00FFE7002099
:101DB0008DF81300FFE79DF8130005B07047000091
:101DC00080B582B00090009820B9FFE701208DF81F
:101DD00007003FE0009890F83D0040B9FFE7009908
:101DE000002081F83C00009800F038F8FFE70099E7
:101DF000022081F83D00009951F8040B00F038FEF4
:101E00000099012081F84600FFE70099012081F840
:101E10003E00009981F83F00009981F84000009948
:101E200081F84100FFE7FFE70099012081F84200B7
:101E3000009981F84300009981F84400009981F8E5
:101E40004500FFE70099012081F83D0000208DF852
:101E50000700FFE79DF8070002B080BD82B0019047
:101E60000198006841F20001C4F20001884212D1D9
:101E7000FFE7FFE70020009043F64000C4F20200B5
:101E8000016841F010010160006800F0100000904E
:101E90000098FFE7FFE702B07047000080B588B008
:101EA00007900020069005900490039002900798F8
:101EB00000680021C4F20101884223D1FFE7FFE757
:101EC0000020019043F63000C4F20200016841F0A6
:101ED00010010160006800F0100001900198FFE718
:101EE0004FF40070029002200390002004900590AF
:101EF0000120069041F20000C4F2020002A9FEF7A0
:101F00007FFAFFE708B080BD80B584B002900191F0
:101F1000029820B9FFE701208DF80F0038E0029801
:101F200090F83D0040B9FFE70299002081F83C009D
:101F3000029800F031F8FFE70299022081F83D0095
:101F4000029951F8040B00F093FD029801680868AB
:101F500020F008000860019A0298016808681043A0
:101F600008600299012081F84600029981F83E003C
:101F7000029981F83F00029981F84200029981F8A4
:101F80004300029981F83D0000208DF80F00FFE723
:101F90009DF80F0004B080BD81B0009001B0704783
:101FA00080B586B004900391029200208DF807005E
:101FB000FFE7049890F83C00012804D1FFE70220D5
:101FC0008DF8170089E00499012081F83C00FFE7B3
:101FD000FFE7029800900C2800F270800099DFE87B
:101FE00001F0076D6D6D206D6D6D3A6D6D6D530077
:101FF00004980068039900F009FE04980168886954
:1020000040F00800886104980168886920F00400A5
:10201000886103980269049801688869104388619F
:1020200050E004980068039900F066FE0498016887
:10203000886940F40060886104980168886920F428
:10204000806088610398026904980168886940EAA1
:102050000220886136E004980068039900F0C6FE0B
:1020600004980168C86940F00800C86104980168D4
:10207000C86920F00400C8610398026904980168E7
:10208000C8691043C8611DE004980068039900F016
:1020900027FF04980168C86940F40060C86104988B
:1020A0000168C86920F48060C861039802690498D7
:1020B0000168C86940EA0220C86103E001208DF888
:1020C0000700FFE7FFE70499002081F83C00FFE7E5
:1020D0009DF807008DF81700FFE79DF8170006B080
:1020E00080BD000080B582B00090009820B9FFE765
:1020F00001208DF807003FE0009890F83D0040B9BE
:10210000FFE70099002081F83C00009800F038F8C3
:10211000FFE70099022081F83D00009951F8040B77
:1021200000F0A6FC0099012081F84600FFE7009925
:10213000012081F83E00009981F83F00009981F864
:102140004000009981F84100FFE7FFE70099012076
:1021500081F84200009981F84300009981F8440019
:10216000009981F84500FFE70099012081F83D00C2
:1021700000208DF80700FFE79DF8070002B080BD42
:1021800082B00190019800680021C4F201018842E8
:1021900012D1FFE7FFE70020009043F64400C4F2AD
:1021A0000200016841F001010160006800F00100D7
:1021B00000900098FFE7FFE702B0704780B582B05B
:1021C0000090009820B9FFE701208DF807003EE05D
:1021D0000098806908B1FFE700E0FFE7009890F8F9
:1021E0003D0040B9FFE70099002081F83C000098CD
:1021F00000F032F8FFE70099242081F83D000098B4
:102200000168C86820F40050C860009800F0BAFE69
:1022100000980168086920F49040086100980168FE
:10222000486920F02A00486100980168C86840F4B5
:102230000050C860009900200864009A202182F8AC
:102240003D10009A82F83E108DF80700FFE79DF8D8
:10225000070002B080BD000080B588B00790002064
:10226000069005900490039002900798006844F649
:102270000041C4F20001884232D1FFE7FFE70020AD
:10228000019043F64000C4F20200016841F40021CD
:102290000160006800F4002001900198FFE7FFE76B
:1022A0000020009043F63000C4F20200016841F0C3
:1022B00001010160006800F0010000900098FFE754
:1022C000032002900221039100210491059008202F
:1022D00006900020C4F2020002A9FEF791F8FFE781
:1022E00008B080BDFFE7FEE780B59AB000201990E6
:1022F0001890179016901590FFE70020149043F661
:102300003000C4F20200016841F010010160006871
:1023100000F0100014901498FFE7FFE700201390DE
:1023200043F63000C4F20200016841F0040101608C
:10233000006800F0040013901398FFE7FFE7002007
:10234000129043F63000C4F20200016841F08001AF
:102350000160006800F0800012901298FFE7FFE72C
:102360000020119043F63000C4F20200016841F0F1
:1023700001010160006800F0010011901198FFE771
:10238000FFE70020109043F63000C4F2020001681D
:1023900041F002010160006800F002001090109806
:1023A000FFE7FFE700200F9043F63000C4F2020081
:1023B000016841F008010160006800F008000F901A
:1023C0000F98FFE741F20000C4F2020001904FF6BF
:1023D0008041009100220D92FEF7EEF90D9A40F631
:1023E0000040C4F20200049048F280010391FEF71D
:1023F000E3F90D9A40F20040C4F202000A90202155
:102400000891FEF7D9F901980D9940F27F121592C3
:10241000032202921692179115A90B91FDF7F0FF76
:10242000029A0B990D984FF2BF431593169217908D
:1024300040F60000C4F202000590FDF7E1FF029AA9
:102440000B990D9841F6DC731593169217900020A6
:10245000C4F202000790FDF7D3FF0798089B0B9981
:102460000D9A15930223169317921892012209923E
:102470001992FDF7C5FF029B0A980B990D9A4FF62A
:10248000CF7CCDF854C016931792FDF7B9FFDDF855
:1024900000C00198099B0B990D9ACDF854C0169372
:1024A00017921892FDF7ACFF029B04980B990D9AB6
:1024B00047F27F7CCDF854C016931792FDF7A0FF2A
:1024C00004980B990D9A4FF4006315931692179286
:1024D000FDF796FFDDF80CC00498099B0B990D9A47
:1024E000CDF854C0169317921892FDF789FF0598FE
:1024F0000B990D9A4FF4346315934FF48813069398
:1025000016931792FDF77CFF069B07980B990D9A7F
:102510004FF4004CCDF854C016931792FDF770FF9E
:102520000A980B990D9A1023159316921792FDF79E
:1025300067FFDDF820C0099B0A980B990D9ACDF82A
:1025400054C0169317921892FDF75AFF0D9A172050
:102550000C901146FEF7E0F90C98FEF7D3F90D9AAE
:1025600028200E901146FEF7D7F90E98FEF7CAF90B
:102570001AB080BD80B588B0002100910791069106
:10258000059104910391029140F21000C2F2000003
:10259000019042F60002C4F20002026041607F2214
:1025A0008260FF22C260016141618161FFF702F92F
:1025B00018B1FFE7FDF794FEFFE715208DF80C003A
:1025C00037208DF80D0000208DF80E0006904FF496
:1025D0008020079040F21000C2F2000003A90122FF
:1025E000FFF722FA18B1FFE7FDF77AFEFFE70320B5
:1025F0008DF8080012208DF8090021208DF80A00BE
:1026000022208DF80B0040F21000C2F2000002A957
:102610000122FFF775F918B1FFE7FDF761FEFFE74B
:1026200040F21000C2F2000040F257210422FEF7EF
:10263000DFFF18B1FFE7FDF753FEFFE708B080BDED
:1026400080B594B0002101911391129111911091D4
:102650000F910E910D910C910B910A910991089196
:102660000791069105910491039140F23000C2F266
:10267000000002900022C4F2010202600F224260B8
:10268000816040F2E732C260016141618161FFF720
:1026900029FD18B1FFE7FDF723FEFFE700201290A8
:1026A000139040F23000C2F2000012A9FFF7F6FAD0
:1026B00018B1FFE7FDF714FEFFE760200B90002242
:1026C0000C920D920E920F921092119240F23000E5
:1026D000C2F200000BA9FFF763FC18B1FFE7FDF79A
:1026E000FFFDFFE7002003900490059006900790FF
:1026F0004FF4005108910A9040F23000C2F20000FD
:1027000003A9FFF771FA18B1FFE7FDF7E9FDFFE74D
:1027100040F23000C2F20000FFF7C0FB14B080BDF1
:1027200080B582B000210191009140F27800C2F2A0
:10273000000041F20002C4F2000202600F22426077
:1027400081604FF6FF72C2608161FFF739FB18B1FB
:10275000FFE7FDF7C5FDFFE740F27800C2F2000099
:102760000821FFF7D1FB18B1FFE7FDF7B9FDFFE73F
:1027700000200090019040F27800C2F2000069460B
:10278000FFF78CFA18B1FFE7FDF7AAFDFFE702B0EB
:1027900080BD000080B582B040F2C000C2F20000EF
:1027A000019044F60041C4F2000101604FF4E131B0
:1027B000416000218160C16001610C224261816140
:1027C000C161FFF7FBFC18B1FFE7FDF789FDFFE7EB
:1027D00002B080BDFFE7FEE7FFE7FEE788B00790A5
:1027E00006910592079800F0070004900498C0F144
:1027F0000700052803D3FFE70420019004E00498B4
:10280000C0F107000190FFE701980390049804309D
:10281000062803D8FFE70020009003E0049803385F
:102820000090FFE70098029006980399012202FAAF
:1028300001F101390840029B984005999A40013AFC
:102840001140084308B070477047000081B08DF810
:10285000030000208DF80200FFE79DF803000A281E
:102860000BD3FFE79DF8020001308DF802009DF8C0
:1028700003000A388DF80300EFE79DF8020000F02E
:102880000F019DF8030040EA011001B070470000FD
:1028900080B584B00390002002908DF80700039863
:1028A0000068C068400600282FD4FFE7039801683D
:1028B000C86840F08000C860FDF796FF0290FFE70F
:1028C00003980068C168002049060029009007D4D9
:1028D000FFE79DF80700013818BF01200090FFE7CF
:1028E0000098C00780B1FFE7FDF77EFF0299401A0C
:1028F000B0F57A7F07D9FFE70399042048770120D4
:102900008DF80700FFE7DBE7FFE79DF8070004B05D
:1029100080BD000080B582B0019000208DF80300DA
:1029200001980168C86820F08000C86001980068BC
:102930008068800600280DD4FFE70198FFF720F992
:1029400038B1FFE701990420487701208DF8030092
:10295000FFE7FFE79DF8030002B080BD704700006D
:1029600080B582B0009000980138B0F1807F03D329
:10297000FFE70120019019E0009801384EF21401A0
:10298000CEF2000108604FF0FF300F2100F0BAFBDB
:102990004EF21801CEF20001002008604EF2100243
:1029A000CEF20002072111600190FFE7019802B00A
:1029B00080BD000080B5FDF71DFF80BD80B594B0DF
:1029C00008A83021FDF734FC002007900690059000
:1029D00004900390FFE70020029043F64000C4F209
:1029E0000200016841F080510160006800F08050F1
:1029F00002900298FFE7FFE70020019047F20000F5
:102A0000C4F20000016841F480410160006800F4F4
:102A1000804001900198FFE70A20089001200B9068
:102A200010210C910D9000200E9008A8FEF780FA5E
:102A300018B1FFE7FDF754FCFFE70F2003900021DA
:102A4000049105910691079103A8FEF7A1F818B12A
:102A5000FFE7FDF745FCFFE714B080BD4EF6885157
:102A6000CEF20001086840F4700008607047000072
:102A700083B00290019102980068009002980021B2
:102A8000C4F20101884225D0FFE70298B0F1804FDF
:102A900020D0FFE7029840F20041C4F200018842D2
:102AA00018D0FFE7029840F60001C4F20001884206
:102AB00010D0FFE7029840F60041C4F200018842BE
:102AC00008D0FFE7029840F20041C4F201018842B9
:102AD0000AD1FFE7009820F070000090019841684B
:102AE000009808430090FFE702980021C4F201011A
:102AF000884255D0FFE70298B0F1804F50D0FFE7F1
:102B0000029840F20041C4F20001884248D0FFE739
:102B1000029840F60001C4F20001884240D0FFE76D
:102B2000029840F60041C4F20001884238D0FFE725
:102B3000029840F20041C4F20101884230D0FFE720
:102B4000029844F20001C4F20101884228D0FFE754
:102B5000029844F20041C4F20101884220D0FFE70C
:102B6000029844F60001C4F20101884218D0FFE740
:102B7000029841F60001C4F20001884210D0FFE73C
:102B8000029841F60041C4F20001884208D0FFE7F4
:102B9000029842F20001C4F2000188420AD1FFE724
:102BA000009820F4407000900198C1680098084394
:102BB0000090FFE7009820F08000019949690843E0
:102BC0000090009802990860019880680299C86294
:102BD000019800680299886202980021C4F20101FC
:102BE000884208D0FFE7029840F20041C4F2010198
:102BF000884205D1FFE70198006902990863FFE761
:102C000002990120486103B07047000085B004902C
:102C100003910499086A20F0010008620498006A90
:102C2000019004984068009004988069029002988E
:102C300020F070000290029820F0030002900398A8
:102C40000168029808430290019820F00200019068
:102C50000398816801980843019004980021C4F208
:102C60000101884208D0FFE7049840F20041C4F215
:102C7000010188420ED1FFE7019820F00800019081
:102C80000398C168019808430190019820F004005E
:102C90000190FFE704980021C4F20101884208D0A6
:102CA000FFE7049840F20041C4F20101884213D1C9
:102CB000FFE7009820F480700090009820F40070E6
:102CC0000090039841690098084300900398816937
:102CD000009808430090FFE7009804994860029824
:102CE000049988610398406804994863019804999D
:102CF000086205B07047000085B004900391049904
:102D0000086A20F0100008620498006A0190049894
:102D100040680090049880690290029820F4E04096
:102D20000290029820F44070029003980168029883
:102D300040EA01200290019820F0200001900398C1
:102D40008168019840EA0110019004980021C4F2C2
:102D50000101884208D0FFE7049840F20041C4F224
:102D6000010188420FD1FFE7019820F08000019017
:102D70000398C168019840EA01100190019820F081
:102D800040000190FFE704980021C4F2010188424D
:102D900008D0FFE7049840F20041C4F201018842E4
:102DA00015D1FFE7009820F480600090009820F48F
:102DB0000060009003984169009840EA810000900B
:102DC00003988169009840EA81000090FFE700982D
:102DD00004994860029804998861039840680499AE
:102DE000886301980499086205B0704785B0049023
:102DF00003910499086A20F4807008620498006ABC
:102E000001900498406800900498C069029002986C
:102E100020F070000290029820F0030002900398C6
:102E20000168029808430290019820F40070019014
:102E300003988168019840EA0120019004980021DC
:102E4000C4F20101884208D0FFE7049840F2004133
:102E5000C4F2010188420FD1FFE7019820F400601D
:102E600001900398C168019840EA012001900198FF
:102E700020F480600190FFE704980021C4F2010172
:102E8000884208D0FFE7049840F20041C4F20101F3
:102E9000884215D1FFE7009820F4805000900098F8
:102EA00020F40050009003984169009840EA011016
:102EB000009003988169009840EA01100090FFE7B4
:102EC00000980499486002980499C8610398406882
:102ED0000499C86301980499086205B0704700001E
:102EE00085B0049003910499086A20F48050086228
:102EF0000498006A01900498406800900498C069A2
:102F00000290029820F4E0400290029820F4407071
:102F1000029003980168029840EA0120029001980B
:102F200020F40050019003988168019840EA013034
:102F3000019004980021C4F20101884208D0FFE703
:102F4000049840F20041C4F2010188420BD1FFE72E
:102F5000009820F48040009003984169009840EA6E
:102F600081100090FFE70098049948600298049946
:102F7000C86103984068049908640198049908623C
:102F800005B0704780B586B0059005980068006967
:102F900020F44050059A1168D268104308610599E1
:102FA00088680B694A69C96918431043084304904B
:102FB00005980068C06849F20C6188430499084389
:102FC00005990968C86005980068406920F4407058
:102FD000059A11689269104348610598006841F2AA
:102FE0000001C4F20101884209D0FFE7059800689A
:102FF00041F20041C4F20101884204D1FFE7FDF72C
:1030000011FF039003E0FDF7FBFE0390FFE7059837
:10301000C069B0F5004F29D1FFE703981921A0FB43
:103020000101059A1368029353685A00DB0FFDF7FC
:10303000C7F80299864648F21F53C5F2EB13AEFB60
:103040000320420910014FF0640C02FB1CEC3222F9
:1030500002EBCC02A2FB0332F82303EA521300EB8B
:103060004300C2F342121044886026E003981921FD
:10307000A0FB0101059A1368019353689A009B0F06
:10308000FDF79EF80199844648F21F52C5F2EB12F3
:10309000ACFB02304309642003FB10CC322000EB70
:1030A0000C10A0FB0202F02000EA521000EB03100B
:1030B000C2F3431210448860FFE706B080BD0000F1
:1030C000FFE7FEE781B08DF803009DF903000028BB
:1030D0000ED4FFE79DF9031001F01F02012090407C
:1030E0004A094EF20011CEF2000141F82200FFE73A
:1030F00001B070474EF60C50CEF200000068C0F3ED
:103100000220704782B08DF8070000919DF90700FA
:1031100000280AD4FFE7009800019DF907104EF23D
:103120000042CEF2000288540BE0009800019DF8A6
:10313000071001F00F014EF61452CEF2000288542F
:10314000FFE702B07047000083B00290029800F0E1
:10315000070000904EF60C51CEF200010868019075
:1031600001984FF6FF02104001900198009A40EA42
:1031700002200022C0F2FA52104301900198086028
:1031800003B0704780B5002000F0D4F800F00AF8D2
:10319000102000F0CFF800F005F84FF4FA6000F0CE
:1031A00009FA80BD80B584B041F20000C4F202008B
:1031B00001904FF4006102910122FDF7FDFA142005
:1031C000039000F0F7F9019802990022FDF7F4FA54
:1031D000039800F0EFF904B080BD000080B586B020
:1031E0000020059000F0A6F83C20FDF781F8059A34
:1031F00041F20000C4F20200019080210391FDF72A
:10320000DBFA0198059A4FF48061FDF7D5FA20208A
:10321000029000F08FF8FFF7C5FF029800F08AF8DF
:10322000FFF7C0FF039800F085F8FFF7BBFF2820E9
:10323000049000F0BFF9059800F07CF8FFF7B2FFAA
:10324000F02000F077F8FFF7ADFF049800F0B2F936
:10325000059800F06FF8FFF7A5FF102000F06AF85E
:10326000FFF7A0FF4FF4FA6000F0A4F9059800F012
:1032700061F8FFF797FF602000F05CF8FFF792FF1E
:1032800006B080BD80B582B08DF807008DF80610BD
:103290009DF806008DF805009DF80700012807D16C
:1032A000FFE79DF8050040F040008DF80500FFE7BE
:1032B0009DF8050040F0800000F002F802B080BDEB
:1032C00080B582B08DF807009DF8070000F032F855
:1032D000FFF768FF9DF8070000F00F00000100F005
:1032E00029F8FFF75FFF02B080BD000080B584B011
:1032F0008DF80F0041F20000C4F20200019080211D
:1033000002910122FDF758FA9DF80F0000F012F823
:10331000FFF748FF9DF80F0000F00F00000100F0DC
:1033200009F8FFF73FFF019802990022FDF744FAE0
:1033300004B080BD80B584B08DF80F0041F200006C
:10334000C4F2020001904FF4004100220292FDF706
:1033500033FA0198029A4FF48041FDF72DFA019853
:10336000029A4FF40051FDF727FA0198029A4FF4A0
:103370008051FDF721FA9DF80F00000600280AD5BC
:10338000FFE741F20000C4F202004FF400410122C5
:10339000FDF712FAFFE79DF80F00400600280AD556
:1033A000FFE741F20000C4F202004FF48041012225
:1033B000FDF702FAFFE79DF80F00800600280AD506
:1033C000FFE741F20000C4F202004FF40051012275
:1033D000FDF7F2F9FFE79DF80F00C00600280AD5B7
:1033E000FFE741F20000C4F202004FF480510122D5
:1033F000FDF7E2F9FFE704B080BD000080B582B0C0
:1034000001908DF8031000208DF802008DF8020065
:10341000FFE79DF802009DF8031088420DDAFFE7F0
:1034200001989DF80210405CFFF760FFFFE79DF8F0
:10343000020001308DF80200EBE702B080BD000011
:1034400080B582B0002000900190FDF7E1F9FFF710
:10345000B5FAFEF749FFFFF78DF8FFF79BF9FFF785
:103460005FF9FFF7EDF8FFF7B9FE00F075F800F02F
:103470008DF8009A40F60040C4F202004FF400417B
:10348000FDF79AF9FFE700F03BF8042803D1FFE7C6
:1034900000F00CF808E000F033F8402803D1FFE713
:1034A00000F034F8FFE7FFE7EDE7000080B582B0F9
:1034B000FFF768FE002101910846FFF7E3FE43F2A3
:1034C0004460C0F600001021FFF798FF019A40F613
:1034D0000040C4F202004FF40041FDF76DF9FFE730
:1034E00000F04EF8012807D1FFE7402000F03CF83B
:1034F000002000F053F800E0F2E702B080BD0000C9
:1035000040F20410C2F200000078704780B5FFF767
:1035100039FE00210846FFF7B5FE43F25560C0F6BC
:1035200000000D21FFF76AFF40F60040C4F20200E0
:103530004FF400410122FDF73FF9FFE700F020F8CA
:10354000102807D1FFE7042000F00EF8002000F05B
:1035500025F800E0F2E780BD40F20411C2F200015C
:10356000042008707047000081B08DF803009DF8BA
:10357000030040F20411C2F20001087001B070476C
:1035800040F20610C2F200000088704740F20611B7
:10359000C2F20001002008807047000081B0ADF841
:1035A0000200BDF8020040F20611C2F200010880DC
:1035B00001B0704781B0ADF80200FFE7BDF802002E
:1035C00040F27801C2F200010A68D062BDF8020040
:1035D000C860FFE740F27800C2F2000002680021F4
:1035E000516202686FF0010111610168086840F0E2
:1035F00001000860FFE740F27800C2F200000068B6
:103600000069C00708B9FFE7F5E701B0704702E0BD
:1036100008C8121F08C1002AFAD17047704700205D
:1036200001E001C1121F002AFBD170470000000019
:103630000000000001020304060708090000000062
:103640000102030443686F6F736520796F75722000
:103650006D6F6465002020202048656C70207465C3
:10366000737400008836000800000020100000007D
:103670000E360008983600081000002000050000F3
:103680001E360008000000000024F40001000000C5
:08369000100000000000000022
:040000050800018965
:00000001FF
